{
	"contracts/NeduToken.sol": {
		"NeduToken": {
			"abi": [
				{
					"inputs": [],
					"stateMutability": "nonpayable",
					"type": "constructor"
				},
				{
					"anonymous": false,
					"inputs": [
						{
							"indexed": true,
							"internalType": "address",
							"name": "from",
							"type": "address"
						},
						{
							"indexed": true,
							"internalType": "address",
							"name": "to",
							"type": "address"
						},
						{
							"indexed": false,
							"internalType": "uint256",
							"name": "amountKeep",
							"type": "uint256"
						}
					],
					"name": "Approval",
					"type": "event"
				},
				{
					"anonymous": false,
					"inputs": [
						{
							"indexed": true,
							"internalType": "address",
							"name": "from",
							"type": "address"
						},
						{
							"indexed": true,
							"internalType": "address",
							"name": "to",
							"type": "address"
						},
						{
							"indexed": false,
							"internalType": "uint256",
							"name": "amount",
							"type": "uint256"
						}
					],
					"name": "Transfer",
					"type": "event"
				},
				{
					"inputs": [
						{
							"internalType": "address",
							"name": "delegate",
							"type": "address"
						},
						{
							"internalType": "uint256",
							"name": "numToken",
							"type": "uint256"
						}
					],
					"name": "approve",
					"outputs": [
						{
							"internalType": "bool",
							"name": "",
							"type": "bool"
						}
					],
					"stateMutability": "nonpayable",
					"type": "function"
				},
				{
					"inputs": [
						{
							"internalType": "address",
							"name": "tokenOwner",
							"type": "address"
						}
					],
					"name": "balance",
					"outputs": [
						{
							"internalType": "uint256",
							"name": "",
							"type": "uint256"
						}
					],
					"stateMutability": "view",
					"type": "function"
				},
				{
					"inputs": [
						{
							"internalType": "address",
							"name": "receiver",
							"type": "address"
						}
					],
					"name": "buyToken",
					"outputs": [
						{
							"internalType": "bool",
							"name": "",
							"type": "bool"
						}
					],
					"stateMutability": "payable",
					"type": "function"
				},
				{
					"inputs": [],
					"name": "getTotalSupply",
					"outputs": [
						{
							"internalType": "uint256",
							"name": "",
							"type": "uint256"
						}
					],
					"stateMutability": "view",
					"type": "function"
				},
				{
					"inputs": [
						{
							"internalType": "address",
							"name": "owner",
							"type": "address"
						},
						{
							"internalType": "address",
							"name": "delegate",
							"type": "address"
						}
					],
					"name": "getapprovedamount",
					"outputs": [
						{
							"internalType": "uint256",
							"name": "",
							"type": "uint256"
						}
					],
					"stateMutability": "view",
					"type": "function"
				},
				{
					"inputs": [
						{
							"internalType": "address",
							"name": "receiver",
							"type": "address"
						},
						{
							"internalType": "uint256",
							"name": "numToken",
							"type": "uint256"
						}
					],
					"name": "transfer",
					"outputs": [
						{
							"internalType": "bool",
							"name": "",
							"type": "bool"
						}
					],
					"stateMutability": "nonpayable",
					"type": "function"
				},
				{
					"inputs": [
						{
							"internalType": "address",
							"name": "owner",
							"type": "address"
						},
						{
							"internalType": "address",
							"name": "delegate",
							"type": "address"
						},
						{
							"internalType": "address",
							"name": "receiver",
							"type": "address"
						},
						{
							"internalType": "uint256",
							"name": "numToken",
							"type": "uint256"
						}
					],
					"name": "transferfrom",
					"outputs": [
						{
							"internalType": "bool",
							"name": "",
							"type": "bool"
						}
					],
					"stateMutability": "nonpayable",
					"type": "function"
				}
			],
			"devdoc": {
				"kind": "dev",
				"methods": {},
				"version": 1
			},
			"evm": {
				"assembly": "    /* \"contracts/NeduToken.sol\":70:2417  contract NeduToken{... */\n  mstore(0x40, 0x80)\n    /* \"contracts/NeduToken.sol\":114:121  1000000 */\n  0x0f4240\n    /* \"contracts/NeduToken.sol\":94:121  uint256 totalSupply=1000000 */\n  0x00\n  sstore\n    /* \"contracts/NeduToken.sol\":385:524  constructor() {... */\n  callvalue\n  dup1\n  iszero\n  tag_1\n  jumpi\n  0x00\n  dup1\n  revert\ntag_1:\n  pop\n    /* \"contracts/NeduToken.sol\":430:441  totalSupply */\n  sload(0x00)\n    /* \"contracts/NeduToken.sol\":409:417  balances */\n  0x01\n    /* \"contracts/NeduToken.sol\":409:429  balances[msg.sender] */\n  0x00\n    /* \"contracts/NeduToken.sol\":418:428  msg.sender */\n  caller\n    /* \"contracts/NeduToken.sol\":409:429  balances[msg.sender] */\n  0xffffffffffffffffffffffffffffffffffffffff\n  and\n  0xffffffffffffffffffffffffffffffffffffffff\n  and\n  dup2\n  mstore\n  0x20\n  add\n  swap1\n  dup2\n  mstore\n  0x20\n  add\n  0x00\n  keccak256\n    /* \"contracts/NeduToken.sol\":409:441  balances[msg.sender]=totalSupply */\n  dup2\n  swap1\n  sstore\n  pop\n    /* \"contracts/NeduToken.sol\":70:2417  contract NeduToken{... */\n  dataSize(sub_0)\n  dup1\n  dataOffset(sub_0)\n  0x00\n  codecopy\n  0x00\n  return\nstop\n\nsub_0: assembly {\n        /* \"contracts/NeduToken.sol\":70:2417  contract NeduToken{... */\n      mstore(0x40, 0x80)\n      jumpi(tag_1, lt(calldatasize, 0x04))\n      shr(0xe0, calldataload(0x00))\n      dup1\n      0xa5f611f2\n      gt\n      tag_9\n      jumpi\n      dup1\n      0xa5f611f2\n      eq\n      tag_5\n      jumpi\n      dup1\n      0xa9059cbb\n      eq\n      tag_6\n      jumpi\n      dup1\n      0xc4e41b22\n      eq\n      tag_7\n      jumpi\n      dup1\n      0xe3d670d7\n      eq\n      tag_8\n      jumpi\n      jump(tag_1)\n    tag_9:\n      dup1\n      0x095ea7b3\n      eq\n      tag_2\n      jumpi\n      dup1\n      0x626bc4c5\n      eq\n      tag_3\n      jumpi\n      dup1\n      0x7e72fb52\n      eq\n      tag_4\n      jumpi\n    tag_1:\n      0x00\n      dup1\n      revert\n        /* \"contracts/NeduToken.sol\":1139:1341  function approve(address delegate,uint numToken) public returns (bool){... */\n    tag_2:\n      callvalue\n      dup1\n      iszero\n      tag_10\n      jumpi\n      0x00\n      dup1\n      revert\n    tag_10:\n      pop\n      tag_11\n      0x04\n      dup1\n      calldatasize\n      sub\n      dup2\n      add\n      swap1\n      tag_12\n      swap2\n      swap1\n      tag_13\n      jump\t// in\n    tag_12:\n      tag_14\n      jump\t// in\n    tag_11:\n      mload(0x40)\n      tag_15\n      swap2\n      swap1\n      tag_16\n      jump\t// in\n    tag_15:\n      mload(0x40)\n      dup1\n      swap2\n      sub\n      swap1\n      return\n        /* \"contracts/NeduToken.sol\":1347:1480  function getapprovedamount(address owner,address delegate)public view returns (uint){... */\n    tag_3:\n      callvalue\n      dup1\n      iszero\n      tag_17\n      jumpi\n      0x00\n      dup1\n      revert\n    tag_17:\n      pop\n      tag_18\n      0x04\n      dup1\n      calldatasize\n      sub\n      dup2\n      add\n      swap1\n      tag_19\n      swap2\n      swap1\n      tag_20\n      jump\t// in\n    tag_19:\n      tag_21\n      jump\t// in\n    tag_18:\n      mload(0x40)\n      tag_22\n      swap2\n      swap1\n      tag_23\n      jump\t// in\n    tag_22:\n      mload(0x40)\n      dup1\n      swap2\n      sub\n      swap1\n      return\n        /* \"contracts/NeduToken.sol\":2045:2409  function buyToken(address receiver)public payable returns (bool){... */\n    tag_4:\n      tag_24\n      0x04\n      dup1\n      calldatasize\n      sub\n      dup2\n      add\n      swap1\n      tag_25\n      swap2\n      swap1\n      tag_26\n      jump\t// in\n    tag_25:\n      tag_27\n      jump\t// in\n    tag_24:\n      mload(0x40)\n      tag_28\n      swap2\n      swap1\n      tag_16\n      jump\t// in\n    tag_28:\n      mload(0x40)\n      dup1\n      swap2\n      sub\n      swap1\n      return\n        /* \"contracts/NeduToken.sol\":1486:2039  function transferfrom(address owner,address delegate,address receiver,uint numToken)public returns (bool){... */\n    tag_5:\n      callvalue\n      dup1\n      iszero\n      tag_29\n      jumpi\n      0x00\n      dup1\n      revert\n    tag_29:\n      pop\n      tag_30\n      0x04\n      dup1\n      calldatasize\n      sub\n      dup2\n      add\n      swap1\n      tag_31\n      swap2\n      swap1\n      tag_32\n      jump\t// in\n    tag_31:\n      tag_33\n      jump\t// in\n    tag_30:\n      mload(0x40)\n      tag_34\n      swap2\n      swap1\n      tag_16\n      jump\t// in\n    tag_34:\n      mload(0x40)\n      dup1\n      swap2\n      sub\n      swap1\n      return\n        /* \"contracts/NeduToken.sol\":745:1133  function transfer(address receiver,uint numToken) public returns (bool) {... */\n    tag_6:\n      callvalue\n      dup1\n      iszero\n      tag_35\n      jumpi\n      0x00\n      dup1\n      revert\n    tag_35:\n      pop\n      tag_36\n      0x04\n      dup1\n      calldatasize\n      sub\n      dup2\n      add\n      swap1\n      tag_37\n      swap2\n      swap1\n      tag_13\n      jump\t// in\n    tag_37:\n      tag_38\n      jump\t// in\n    tag_36:\n      mload(0x40)\n      tag_39\n      swap2\n      swap1\n      tag_16\n      jump\t// in\n    tag_39:\n      mload(0x40)\n      dup1\n      swap2\n      sub\n      swap1\n      return\n        /* \"contracts/NeduToken.sol\":531:621  function getTotalSupply() public view returns (uint256){... */\n    tag_7:\n      callvalue\n      dup1\n      iszero\n      tag_40\n      jumpi\n      0x00\n      dup1\n      revert\n    tag_40:\n      pop\n      tag_41\n      tag_42\n      jump\t// in\n    tag_41:\n      mload(0x40)\n      tag_43\n      swap2\n      swap1\n      tag_23\n      jump\t// in\n    tag_43:\n      mload(0x40)\n      dup1\n      swap2\n      sub\n      swap1\n      return\n        /* \"contracts/NeduToken.sol\":632:738  function balance(address tokenOwner)public view returns (uint){... */\n    tag_8:\n      callvalue\n      dup1\n      iszero\n      tag_44\n      jumpi\n      0x00\n      dup1\n      revert\n    tag_44:\n      pop\n      tag_45\n      0x04\n      dup1\n      calldatasize\n      sub\n      dup2\n      add\n      swap1\n      tag_46\n      swap2\n      swap1\n      tag_26\n      jump\t// in\n    tag_46:\n      tag_47\n      jump\t// in\n    tag_45:\n      mload(0x40)\n      tag_48\n      swap2\n      swap1\n      tag_23\n      jump\t// in\n    tag_48:\n      mload(0x40)\n      dup1\n      swap2\n      sub\n      swap1\n      return\n        /* \"contracts/NeduToken.sol\":1139:1341  function approve(address delegate,uint numToken) public returns (bool){... */\n    tag_14:\n        /* \"contracts/NeduToken.sol\":1204:1208  bool */\n      0x00\n        /* \"contracts/NeduToken.sol\":1250:1258  numToken */\n      dup2\n        /* \"contracts/NeduToken.sol\":1219:1227  approved */\n      0x02\n        /* \"contracts/NeduToken.sol\":1219:1239  approved[msg.sender] */\n      0x00\n        /* \"contracts/NeduToken.sol\":1228:1238  msg.sender */\n      caller\n        /* \"contracts/NeduToken.sol\":1219:1239  approved[msg.sender] */\n      0xffffffffffffffffffffffffffffffffffffffff\n      and\n      0xffffffffffffffffffffffffffffffffffffffff\n      and\n      dup2\n      mstore\n      0x20\n      add\n      swap1\n      dup2\n      mstore\n      0x20\n      add\n      0x00\n      keccak256\n        /* \"contracts/NeduToken.sol\":1219:1249  approved[msg.sender][delegate] */\n      0x00\n        /* \"contracts/NeduToken.sol\":1240:1248  delegate */\n      dup6\n        /* \"contracts/NeduToken.sol\":1219:1249  approved[msg.sender][delegate] */\n      0xffffffffffffffffffffffffffffffffffffffff\n      and\n      0xffffffffffffffffffffffffffffffffffffffff\n      and\n      dup2\n      mstore\n      0x20\n      add\n      swap1\n      dup2\n      mstore\n      0x20\n      add\n      0x00\n      keccak256\n        /* \"contracts/NeduToken.sol\":1219:1258  approved[msg.sender][delegate]=numToken */\n      dup2\n      swap1\n      sstore\n      pop\n        /* \"contracts/NeduToken.sol\":1294:1302  delegate */\n      dup3\n        /* \"contracts/NeduToken.sol\":1273:1313  Approval(msg.sender, delegate, numToken) */\n      0xffffffffffffffffffffffffffffffffffffffff\n      and\n        /* \"contracts/NeduToken.sol\":1282:1292  msg.sender */\n      caller\n        /* \"contracts/NeduToken.sol\":1273:1313  Approval(msg.sender, delegate, numToken) */\n      0xffffffffffffffffffffffffffffffffffffffff\n      and\n      0x8c5be1e5ebec7d5bd14f71427d1e84f3dd0314c0f7b2291e5b200ac8c7c3b925\n        /* \"contracts/NeduToken.sol\":1304:1312  numToken */\n      dup5\n        /* \"contracts/NeduToken.sol\":1273:1313  Approval(msg.sender, delegate, numToken) */\n      mload(0x40)\n      tag_50\n      swap2\n      swap1\n      tag_23\n      jump\t// in\n    tag_50:\n      mload(0x40)\n      dup1\n      swap2\n      sub\n      swap1\n      log3\n        /* \"contracts/NeduToken.sol\":1330:1334  true */\n      0x01\n        /* \"contracts/NeduToken.sol\":1323:1334  return true */\n      swap1\n      pop\n        /* \"contracts/NeduToken.sol\":1139:1341  function approve(address delegate,uint numToken) public returns (bool){... */\n      swap3\n      swap2\n      pop\n      pop\n      jump\t// out\n        /* \"contracts/NeduToken.sol\":1347:1480  function getapprovedamount(address owner,address delegate)public view returns (uint){... */\n    tag_21:\n        /* \"contracts/NeduToken.sol\":1426:1430  uint */\n      0x00\n        /* \"contracts/NeduToken.sol\":1448:1456  approved */\n      0x02\n        /* \"contracts/NeduToken.sol\":1448:1463  approved[owner] */\n      0x00\n        /* \"contracts/NeduToken.sol\":1457:1462  owner */\n      dup5\n        /* \"contracts/NeduToken.sol\":1448:1463  approved[owner] */\n      0xffffffffffffffffffffffffffffffffffffffff\n      and\n      0xffffffffffffffffffffffffffffffffffffffff\n      and\n      dup2\n      mstore\n      0x20\n      add\n      swap1\n      dup2\n      mstore\n      0x20\n      add\n      0x00\n      keccak256\n        /* \"contracts/NeduToken.sol\":1448:1473  approved[owner][delegate] */\n      0x00\n        /* \"contracts/NeduToken.sol\":1464:1472  delegate */\n      dup4\n        /* \"contracts/NeduToken.sol\":1448:1473  approved[owner][delegate] */\n      0xffffffffffffffffffffffffffffffffffffffff\n      and\n      0xffffffffffffffffffffffffffffffffffffffff\n      and\n      dup2\n      mstore\n      0x20\n      add\n      swap1\n      dup2\n      mstore\n      0x20\n      add\n      0x00\n      keccak256\n      sload\n        /* \"contracts/NeduToken.sol\":1441:1473  return approved[owner][delegate] */\n      swap1\n      pop\n        /* \"contracts/NeduToken.sol\":1347:1480  function getapprovedamount(address owner,address delegate)public view returns (uint){... */\n      swap3\n      swap2\n      pop\n      pop\n      jump\t// out\n        /* \"contracts/NeduToken.sol\":2045:2409  function buyToken(address receiver)public payable returns (bool){... */\n    tag_27:\n        /* \"contracts/NeduToken.sol\":2104:2108  bool */\n      0x00\n        /* \"contracts/NeduToken.sol\":2140:2144  1e15 */\n      0x038d7ea4c68000\n        /* \"contracts/NeduToken.sol\":2127:2136  msg.value */\n      callvalue\n        /* \"contracts/NeduToken.sol\":2127:2144  msg.value >= 1e15 */\n      lt\n      iszero\n        /* \"contracts/NeduToken.sol\":2119:2178  require(msg.value >= 1e15, \"You must at least buy 1 token\") */\n      tag_53\n      jumpi\n      mload(0x40)\n      0x08c379a000000000000000000000000000000000000000000000000000000000\n      dup2\n      mstore\n      0x04\n      add\n      tag_54\n      swap1\n      tag_55\n      jump\t// in\n    tag_54:\n      mload(0x40)\n      dup1\n      swap2\n      sub\n      swap1\n      revert\n    tag_53:\n        /* \"contracts/NeduToken.sol\":2188:2204  uint tokenbought */\n      0x00\n        /* \"contracts/NeduToken.sol\":2215:2219  1e15 */\n      0x038d7ea4c68000\n        /* \"contracts/NeduToken.sol\":2205:2214  msg.value */\n      callvalue\n        /* \"contracts/NeduToken.sol\":2205:2219  msg.value/1e15 */\n      tag_56\n      swap2\n      swap1\n      tag_57\n      jump\t// in\n    tag_56:\n        /* \"contracts/NeduToken.sol\":2188:2219  uint tokenbought=msg.value/1e15 */\n      swap1\n      pop\n        /* \"contracts/NeduToken.sol\":2267:2278  tokenbought */\n      dup1\n        /* \"contracts/NeduToken.sol\":2248:2256  balances */\n      0x01\n        /* \"contracts/NeduToken.sol\":2248:2266  balances[receiver] */\n      0x00\n        /* \"contracts/NeduToken.sol\":2257:2265  receiver */\n      dup6\n        /* \"contracts/NeduToken.sol\":2248:2266  balances[receiver] */\n      0xffffffffffffffffffffffffffffffffffffffff\n      and\n      0xffffffffffffffffffffffffffffffffffffffff\n      and\n      dup2\n      mstore\n      0x20\n      add\n      swap1\n      dup2\n      mstore\n      0x20\n      add\n      0x00\n      keccak256\n      sload\n        /* \"contracts/NeduToken.sol\":2248:2278  balances[receiver]+tokenbought */\n      tag_58\n      swap2\n      swap1\n      tag_59\n      jump\t// in\n    tag_58:\n        /* \"contracts/NeduToken.sol\":2229:2237  balances */\n      0x01\n        /* \"contracts/NeduToken.sol\":2229:2247  balances[receiver] */\n      0x00\n        /* \"contracts/NeduToken.sol\":2238:2246  receiver */\n      dup6\n        /* \"contracts/NeduToken.sol\":2229:2247  balances[receiver] */\n      0xffffffffffffffffffffffffffffffffffffffff\n      and\n      0xffffffffffffffffffffffffffffffffffffffff\n      and\n      dup2\n      mstore\n      0x20\n      add\n      swap1\n      dup2\n      mstore\n      0x20\n      add\n      0x00\n      keccak256\n        /* \"contracts/NeduToken.sol\":2229:2278  balances[receiver]=balances[receiver]+tokenbought */\n      dup2\n      swap1\n      sstore\n      pop\n        /* \"contracts/NeduToken.sol\":2312:2323  tokenbought */\n      dup1\n        /* \"contracts/NeduToken.sol\":2300:2311  totalSupply */\n      sload(0x00)\n        /* \"contracts/NeduToken.sol\":2300:2323  totalSupply+tokenbought */\n      tag_60\n      swap2\n      swap1\n      tag_59\n      jump\t// in\n    tag_60:\n        /* \"contracts/NeduToken.sol\":2288:2299  totalSupply */\n      0x00\n        /* \"contracts/NeduToken.sol\":2288:2323  totalSupply=totalSupply+tokenbought */\n      dup2\n      swap1\n      sstore\n      pop\n        /* \"contracts/NeduToken.sol\":2359:2367  receiver */\n      dup3\n        /* \"contracts/NeduToken.sol\":2338:2381  Transfer(msg.sender, receiver, tokenbought) */\n      0xffffffffffffffffffffffffffffffffffffffff\n      and\n        /* \"contracts/NeduToken.sol\":2347:2357  msg.sender */\n      caller\n        /* \"contracts/NeduToken.sol\":2338:2381  Transfer(msg.sender, receiver, tokenbought) */\n      0xffffffffffffffffffffffffffffffffffffffff\n      and\n      0xddf252ad1be2c89b69c2b068fc378daa952ba7f163c4a11628f55a4df523b3ef\n        /* \"contracts/NeduToken.sol\":2369:2380  tokenbought */\n      dup4\n        /* \"contracts/NeduToken.sol\":2338:2381  Transfer(msg.sender, receiver, tokenbought) */\n      mload(0x40)\n      tag_61\n      swap2\n      swap1\n      tag_23\n      jump\t// in\n    tag_61:\n      mload(0x40)\n      dup1\n      swap2\n      sub\n      swap1\n      log3\n        /* \"contracts/NeduToken.sol\":2398:2402  true */\n      0x01\n        /* \"contracts/NeduToken.sol\":2391:2402  return true */\n      swap2\n      pop\n      pop\n        /* \"contracts/NeduToken.sol\":2045:2409  function buyToken(address receiver)public payable returns (bool){... */\n      swap2\n      swap1\n      pop\n      jump\t// out\n        /* \"contracts/NeduToken.sol\":1486:2039  function transferfrom(address owner,address delegate,address receiver,uint numToken)public returns (bool){... */\n    tag_33:\n        /* \"contracts/NeduToken.sol\":1586:1590  bool */\n      0x00\n        /* \"contracts/NeduToken.sol\":1619:1627  balances */\n      0x01\n        /* \"contracts/NeduToken.sol\":1619:1634  balances[owner] */\n      0x00\n        /* \"contracts/NeduToken.sol\":1628:1633  owner */\n      dup7\n        /* \"contracts/NeduToken.sol\":1619:1634  balances[owner] */\n      0xffffffffffffffffffffffffffffffffffffffff\n      and\n      0xffffffffffffffffffffffffffffffffffffffff\n      and\n      dup2\n      mstore\n      0x20\n      add\n      swap1\n      dup2\n      mstore\n      0x20\n      add\n      0x00\n      keccak256\n      sload\n        /* \"contracts/NeduToken.sol\":1609:1617  numToken */\n      dup3\n        /* \"contracts/NeduToken.sol\":1609:1634  numToken<=balances[owner] */\n      gt\n      iszero\n        /* \"contracts/NeduToken.sol\":1601:1659  require(numToken<=balances[owner], \"Insufficient balance\") */\n      tag_63\n      jumpi\n      mload(0x40)\n      0x08c379a000000000000000000000000000000000000000000000000000000000\n      dup2\n      mstore\n      0x04\n      add\n      tag_64\n      swap1\n      tag_65\n      jump\t// in\n    tag_64:\n      mload(0x40)\n      dup1\n      swap2\n      sub\n      swap1\n      revert\n    tag_63:\n        /* \"contracts/NeduToken.sol\":1687:1721  getapprovedamount(owner, delegate) */\n      tag_66\n        /* \"contracts/NeduToken.sol\":1705:1710  owner */\n      dup6\n        /* \"contracts/NeduToken.sol\":1712:1720  delegate */\n      dup6\n        /* \"contracts/NeduToken.sol\":1687:1704  getapprovedamount */\n      tag_21\n        /* \"contracts/NeduToken.sol\":1687:1721  getapprovedamount(owner, delegate) */\n      jump\t// in\n    tag_66:\n        /* \"contracts/NeduToken.sol\":1677:1685  numToken */\n      dup3\n        /* \"contracts/NeduToken.sol\":1677:1721  numToken<=getapprovedamount(owner, delegate) */\n      gt\n      iszero\n        /* \"contracts/NeduToken.sol\":1669:1778  require(numToken<=getapprovedamount(owner, delegate),\"Delegate account doesn't have access to enough tokens\") */\n      tag_67\n      jumpi\n      mload(0x40)\n      0x08c379a000000000000000000000000000000000000000000000000000000000\n      dup2\n      mstore\n      0x04\n      add\n      tag_68\n      swap1\n      tag_69\n      jump\t// in\n    tag_68:\n      mload(0x40)\n      dup1\n      swap2\n      sub\n      swap1\n      revert\n    tag_67:\n        /* \"contracts/NeduToken.sol\":1820:1828  numToken */\n      dup2\n        /* \"contracts/NeduToken.sol\":1804:1812  balances */\n      0x01\n        /* \"contracts/NeduToken.sol\":1804:1819  balances[owner] */\n      0x00\n        /* \"contracts/NeduToken.sol\":1813:1818  owner */\n      dup8\n        /* \"contracts/NeduToken.sol\":1804:1819  balances[owner] */\n      0xffffffffffffffffffffffffffffffffffffffff\n      and\n      0xffffffffffffffffffffffffffffffffffffffff\n      and\n      dup2\n      mstore\n      0x20\n      add\n      swap1\n      dup2\n      mstore\n      0x20\n      add\n      0x00\n      keccak256\n      sload\n        /* \"contracts/NeduToken.sol\":1804:1828  balances[owner]-numToken */\n      tag_70\n      swap2\n      swap1\n      tag_71\n      jump\t// in\n    tag_70:\n        /* \"contracts/NeduToken.sol\":1788:1796  balances */\n      0x01\n        /* \"contracts/NeduToken.sol\":1788:1803  balances[owner] */\n      0x00\n        /* \"contracts/NeduToken.sol\":1797:1802  owner */\n      dup8\n        /* \"contracts/NeduToken.sol\":1788:1803  balances[owner] */\n      0xffffffffffffffffffffffffffffffffffffffff\n      and\n      0xffffffffffffffffffffffffffffffffffffffff\n      and\n      dup2\n      mstore\n      0x20\n      add\n      swap1\n      dup2\n      mstore\n      0x20\n      add\n      0x00\n      keccak256\n        /* \"contracts/NeduToken.sol\":1788:1828  balances[owner]=balances[owner]-numToken */\n      dup2\n      swap1\n      sstore\n      pop\n        /* \"contracts/NeduToken.sol\":1899:1907  numToken */\n      dup2\n        /* \"contracts/NeduToken.sol\":1864:1898  getapprovedamount(owner, delegate) */\n      tag_72\n        /* \"contracts/NeduToken.sol\":1882:1887  owner */\n      dup7\n        /* \"contracts/NeduToken.sol\":1889:1897  delegate */\n      dup7\n        /* \"contracts/NeduToken.sol\":1864:1881  getapprovedamount */\n      tag_21\n        /* \"contracts/NeduToken.sol\":1864:1898  getapprovedamount(owner, delegate) */\n      jump\t// in\n    tag_72:\n        /* \"contracts/NeduToken.sol\":1864:1907  getapprovedamount(owner, delegate)-numToken */\n      tag_73\n      swap2\n      swap1\n      tag_71\n      jump\t// in\n    tag_73:\n        /* \"contracts/NeduToken.sol\":1838:1846  approved */\n      0x02\n        /* \"contracts/NeduToken.sol\":1838:1853  approved[owner] */\n      0x00\n        /* \"contracts/NeduToken.sol\":1847:1852  owner */\n      dup8\n        /* \"contracts/NeduToken.sol\":1838:1853  approved[owner] */\n      0xffffffffffffffffffffffffffffffffffffffff\n      and\n      0xffffffffffffffffffffffffffffffffffffffff\n      and\n      dup2\n      mstore\n      0x20\n      add\n      swap1\n      dup2\n      mstore\n      0x20\n      add\n      0x00\n      keccak256\n        /* \"contracts/NeduToken.sol\":1838:1863  approved[owner][delegate] */\n      0x00\n        /* \"contracts/NeduToken.sol\":1854:1862  delegate */\n      dup7\n        /* \"contracts/NeduToken.sol\":1838:1863  approved[owner][delegate] */\n      0xffffffffffffffffffffffffffffffffffffffff\n      and\n      0xffffffffffffffffffffffffffffffffffffffff\n      and\n      dup2\n      mstore\n      0x20\n      add\n      swap1\n      dup2\n      mstore\n      0x20\n      add\n      0x00\n      keccak256\n        /* \"contracts/NeduToken.sol\":1838:1907  approved[owner][delegate]=getapprovedamount(owner, delegate)-numToken */\n      dup2\n      swap1\n      sstore\n      pop\n        /* \"contracts/NeduToken.sol\":1955:1963  numToken */\n      dup2\n        /* \"contracts/NeduToken.sol\":1936:1944  balances */\n      0x01\n        /* \"contracts/NeduToken.sol\":1936:1954  balances[receiver] */\n      0x00\n        /* \"contracts/NeduToken.sol\":1945:1953  receiver */\n      dup6\n        /* \"contracts/NeduToken.sol\":1936:1954  balances[receiver] */\n      0xffffffffffffffffffffffffffffffffffffffff\n      and\n      0xffffffffffffffffffffffffffffffffffffffff\n      and\n      dup2\n      mstore\n      0x20\n      add\n      swap1\n      dup2\n      mstore\n      0x20\n      add\n      0x00\n      keccak256\n      sload\n        /* \"contracts/NeduToken.sol\":1936:1963  balances[receiver]+numToken */\n      tag_74\n      swap2\n      swap1\n      tag_59\n      jump\t// in\n    tag_74:\n        /* \"contracts/NeduToken.sol\":1917:1925  balances */\n      0x01\n        /* \"contracts/NeduToken.sol\":1917:1935  balances[receiver] */\n      0x00\n        /* \"contracts/NeduToken.sol\":1926:1934  receiver */\n      dup6\n        /* \"contracts/NeduToken.sol\":1917:1935  balances[receiver] */\n      0xffffffffffffffffffffffffffffffffffffffff\n      and\n      0xffffffffffffffffffffffffffffffffffffffff\n      and\n      dup2\n      mstore\n      0x20\n      add\n      swap1\n      dup2\n      mstore\n      0x20\n      add\n      0x00\n      keccak256\n        /* \"contracts/NeduToken.sol\":1917:1963  balances[receiver]=balances[receiver]+numToken */\n      dup2\n      swap1\n      sstore\n      pop\n        /* \"contracts/NeduToken.sol\":1993:2001  receiver */\n      dup3\n        /* \"contracts/NeduToken.sol\":1978:2011  Transfer(owner,receiver,numToken) */\n      0xffffffffffffffffffffffffffffffffffffffff\n      and\n        /* \"contracts/NeduToken.sol\":1987:1992  owner */\n      dup6\n        /* \"contracts/NeduToken.sol\":1978:2011  Transfer(owner,receiver,numToken) */\n      0xffffffffffffffffffffffffffffffffffffffff\n      and\n      0xddf252ad1be2c89b69c2b068fc378daa952ba7f163c4a11628f55a4df523b3ef\n        /* \"contracts/NeduToken.sol\":2002:2010  numToken */\n      dup5\n        /* \"contracts/NeduToken.sol\":1978:2011  Transfer(owner,receiver,numToken) */\n      mload(0x40)\n      tag_75\n      swap2\n      swap1\n      tag_23\n      jump\t// in\n    tag_75:\n      mload(0x40)\n      dup1\n      swap2\n      sub\n      swap1\n      log3\n        /* \"contracts/NeduToken.sol\":2028:2032  true */\n      0x01\n        /* \"contracts/NeduToken.sol\":2021:2032  return true */\n      swap1\n      pop\n        /* \"contracts/NeduToken.sol\":1486:2039  function transferfrom(address owner,address delegate,address receiver,uint numToken)public returns (bool){... */\n      swap5\n      swap4\n      pop\n      pop\n      pop\n      pop\n      jump\t// out\n        /* \"contracts/NeduToken.sol\":745:1133  function transfer(address receiver,uint numToken) public returns (bool) {... */\n    tag_38:\n        /* \"contracts/NeduToken.sol\":811:815  bool */\n      0x00\n        /* \"contracts/NeduToken.sol\":847:855  balances */\n      0x01\n        /* \"contracts/NeduToken.sol\":847:867  balances[msg.sender] */\n      0x00\n        /* \"contracts/NeduToken.sol\":856:866  msg.sender */\n      caller\n        /* \"contracts/NeduToken.sol\":847:867  balances[msg.sender] */\n      0xffffffffffffffffffffffffffffffffffffffff\n      and\n      0xffffffffffffffffffffffffffffffffffffffff\n      and\n      dup2\n      mstore\n      0x20\n      add\n      swap1\n      dup2\n      mstore\n      0x20\n      add\n      0x00\n      keccak256\n      sload\n        /* \"contracts/NeduToken.sol\":835:843  numToken */\n      dup3\n        /* \"contracts/NeduToken.sol\":835:867  numToken <= balances[msg.sender] */\n      gt\n      iszero\n        /* \"contracts/NeduToken.sol\":827:872  require(numToken <= balances[msg.sender], \"\") */\n      tag_77\n      jumpi\n      mload(0x40)\n      0x08c379a000000000000000000000000000000000000000000000000000000000\n      dup2\n      mstore\n      0x04\n      add\n      tag_78\n      swap1\n      tag_79\n      jump\t// in\n    tag_78:\n      mload(0x40)\n      dup1\n      swap2\n      sub\n      swap1\n      revert\n    tag_77:\n        /* \"contracts/NeduToken.sol\":964:972  numToken */\n      dup2\n        /* \"contracts/NeduToken.sol\":943:951  balances */\n      0x01\n        /* \"contracts/NeduToken.sol\":943:963  balances[msg.sender] */\n      0x00\n        /* \"contracts/NeduToken.sol\":952:962  msg.sender */\n      caller\n        /* \"contracts/NeduToken.sol\":943:963  balances[msg.sender] */\n      0xffffffffffffffffffffffffffffffffffffffff\n      and\n      0xffffffffffffffffffffffffffffffffffffffff\n      and\n      dup2\n      mstore\n      0x20\n      add\n      swap1\n      dup2\n      mstore\n      0x20\n      add\n      0x00\n      keccak256\n      sload\n        /* \"contracts/NeduToken.sol\":943:972  balances[msg.sender]-numToken */\n      tag_80\n      swap2\n      swap1\n      tag_71\n      jump\t// in\n    tag_80:\n        /* \"contracts/NeduToken.sol\":922:930  balances */\n      0x01\n        /* \"contracts/NeduToken.sol\":922:942  balances[msg.sender] */\n      0x00\n        /* \"contracts/NeduToken.sol\":931:941  msg.sender */\n      caller\n        /* \"contracts/NeduToken.sol\":922:942  balances[msg.sender] */\n      0xffffffffffffffffffffffffffffffffffffffff\n      and\n      0xffffffffffffffffffffffffffffffffffffffff\n      and\n      dup2\n      mstore\n      0x20\n      add\n      swap1\n      dup2\n      mstore\n      0x20\n      add\n      0x00\n      keccak256\n        /* \"contracts/NeduToken.sol\":922:972  balances[msg.sender]=balances[msg.sender]-numToken */\n      dup2\n      swap1\n      sstore\n      pop\n        /* \"contracts/NeduToken.sol\":1020:1028  numToken */\n      dup2\n        /* \"contracts/NeduToken.sol\":1001:1009  balances */\n      0x01\n        /* \"contracts/NeduToken.sol\":1001:1019  balances[receiver] */\n      0x00\n        /* \"contracts/NeduToken.sol\":1010:1018  receiver */\n      dup6\n        /* \"contracts/NeduToken.sol\":1001:1019  balances[receiver] */\n      0xffffffffffffffffffffffffffffffffffffffff\n      and\n      0xffffffffffffffffffffffffffffffffffffffff\n      and\n      dup2\n      mstore\n      0x20\n      add\n      swap1\n      dup2\n      mstore\n      0x20\n      add\n      0x00\n      keccak256\n      sload\n        /* \"contracts/NeduToken.sol\":1001:1028  balances[receiver]+numToken */\n      tag_81\n      swap2\n      swap1\n      tag_59\n      jump\t// in\n    tag_81:\n        /* \"contracts/NeduToken.sol\":982:990  balances */\n      0x01\n        /* \"contracts/NeduToken.sol\":982:1000  balances[receiver] */\n      0x00\n        /* \"contracts/NeduToken.sol\":991:999  receiver */\n      dup6\n        /* \"contracts/NeduToken.sol\":982:1000  balances[receiver] */\n      0xffffffffffffffffffffffffffffffffffffffff\n      and\n      0xffffffffffffffffffffffffffffffffffffffff\n      and\n      dup2\n      mstore\n      0x20\n      add\n      swap1\n      dup2\n      mstore\n      0x20\n      add\n      0x00\n      keccak256\n        /* \"contracts/NeduToken.sol\":982:1028  balances[receiver]=balances[receiver]+numToken */\n      dup2\n      swap1\n      sstore\n      pop\n        /* \"contracts/NeduToken.sol\":1064:1072  receiver */\n      dup3\n        /* \"contracts/NeduToken.sol\":1043:1083  Transfer(msg.sender, receiver, numToken) */\n      0xffffffffffffffffffffffffffffffffffffffff\n      and\n        /* \"contracts/NeduToken.sol\":1052:1062  msg.sender */\n      caller\n        /* \"contracts/NeduToken.sol\":1043:1083  Transfer(msg.sender, receiver, numToken) */\n      0xffffffffffffffffffffffffffffffffffffffff\n      and\n      0xddf252ad1be2c89b69c2b068fc378daa952ba7f163c4a11628f55a4df523b3ef\n        /* \"contracts/NeduToken.sol\":1074:1082  numToken */\n      dup5\n        /* \"contracts/NeduToken.sol\":1043:1083  Transfer(msg.sender, receiver, numToken) */\n      mload(0x40)\n      tag_82\n      swap2\n      swap1\n      tag_23\n      jump\t// in\n    tag_82:\n      mload(0x40)\n      dup1\n      swap2\n      sub\n      swap1\n      log3\n        /* \"contracts/NeduToken.sol\":1121:1125  true */\n      0x01\n        /* \"contracts/NeduToken.sol\":1114:1125  return true */\n      swap1\n      pop\n        /* \"contracts/NeduToken.sol\":745:1133  function transfer(address receiver,uint numToken) public returns (bool) {... */\n      swap3\n      swap2\n      pop\n      pop\n      jump\t// out\n        /* \"contracts/NeduToken.sol\":531:621  function getTotalSupply() public view returns (uint256){... */\n    tag_42:\n        /* \"contracts/NeduToken.sol\":578:585  uint256 */\n      0x00\n        /* \"contracts/NeduToken.sol\":603:614  totalSupply */\n      dup1\n      sload\n        /* \"contracts/NeduToken.sol\":596:614  return totalSupply */\n      swap1\n      pop\n        /* \"contracts/NeduToken.sol\":531:621  function getTotalSupply() public view returns (uint256){... */\n      swap1\n      jump\t// out\n        /* \"contracts/NeduToken.sol\":632:738  function balance(address tokenOwner)public view returns (uint){... */\n    tag_47:\n        /* \"contracts/NeduToken.sol\":689:693  uint */\n      0x00\n        /* \"contracts/NeduToken.sol\":711:719  balances */\n      0x01\n        /* \"contracts/NeduToken.sol\":711:731  balances[tokenOwner] */\n      0x00\n        /* \"contracts/NeduToken.sol\":720:730  tokenOwner */\n      dup4\n        /* \"contracts/NeduToken.sol\":711:731  balances[tokenOwner] */\n      0xffffffffffffffffffffffffffffffffffffffff\n      and\n      0xffffffffffffffffffffffffffffffffffffffff\n      and\n      dup2\n      mstore\n      0x20\n      add\n      swap1\n      dup2\n      mstore\n      0x20\n      add\n      0x00\n      keccak256\n      sload\n        /* \"contracts/NeduToken.sol\":704:731  return balances[tokenOwner] */\n      swap1\n      pop\n        /* \"contracts/NeduToken.sol\":632:738  function balance(address tokenOwner)public view returns (uint){... */\n      swap2\n      swap1\n      pop\n      jump\t// out\n        /* \"#utility.yul\":7:146   */\n    tag_86:\n        /* \"#utility.yul\":53:58   */\n      0x00\n        /* \"#utility.yul\":91:97   */\n      dup2\n        /* \"#utility.yul\":78:98   */\n      calldataload\n        /* \"#utility.yul\":69:98   */\n      swap1\n      pop\n        /* \"#utility.yul\":107:140   */\n      tag_88\n        /* \"#utility.yul\":134:139   */\n      dup2\n        /* \"#utility.yul\":107:140   */\n      tag_89\n      jump\t// in\n    tag_88:\n        /* \"#utility.yul\":7:146   */\n      swap3\n      swap2\n      pop\n      pop\n      jump\t// out\n        /* \"#utility.yul\":152:291   */\n    tag_90:\n        /* \"#utility.yul\":198:203   */\n      0x00\n        /* \"#utility.yul\":236:242   */\n      dup2\n        /* \"#utility.yul\":223:243   */\n      calldataload\n        /* \"#utility.yul\":214:243   */\n      swap1\n      pop\n        /* \"#utility.yul\":252:285   */\n      tag_92\n        /* \"#utility.yul\":279:284   */\n      dup2\n        /* \"#utility.yul\":252:285   */\n      tag_93\n      jump\t// in\n    tag_92:\n        /* \"#utility.yul\":152:291   */\n      swap3\n      swap2\n      pop\n      pop\n      jump\t// out\n        /* \"#utility.yul\":297:626   */\n    tag_26:\n        /* \"#utility.yul\":356:362   */\n      0x00\n        /* \"#utility.yul\":405:407   */\n      0x20\n        /* \"#utility.yul\":393:402   */\n      dup3\n        /* \"#utility.yul\":384:391   */\n      dup5\n        /* \"#utility.yul\":380:403   */\n      sub\n        /* \"#utility.yul\":376:408   */\n      slt\n        /* \"#utility.yul\":373:492   */\n      iszero\n      tag_95\n      jumpi\n        /* \"#utility.yul\":411:490   */\n      tag_96\n      tag_97\n      jump\t// in\n    tag_96:\n        /* \"#utility.yul\":373:492   */\n    tag_95:\n        /* \"#utility.yul\":531:532   */\n      0x00\n        /* \"#utility.yul\":556:609   */\n      tag_98\n        /* \"#utility.yul\":601:608   */\n      dup5\n        /* \"#utility.yul\":592:598   */\n      dup3\n        /* \"#utility.yul\":581:590   */\n      dup6\n        /* \"#utility.yul\":577:599   */\n      add\n        /* \"#utility.yul\":556:609   */\n      tag_86\n      jump\t// in\n    tag_98:\n        /* \"#utility.yul\":546:609   */\n      swap2\n      pop\n        /* \"#utility.yul\":502:619   */\n      pop\n        /* \"#utility.yul\":297:626   */\n      swap3\n      swap2\n      pop\n      pop\n      jump\t// out\n        /* \"#utility.yul\":632:1106   */\n    tag_20:\n        /* \"#utility.yul\":700:706   */\n      0x00\n        /* \"#utility.yul\":708:714   */\n      dup1\n        /* \"#utility.yul\":757:759   */\n      0x40\n        /* \"#utility.yul\":745:754   */\n      dup4\n        /* \"#utility.yul\":736:743   */\n      dup6\n        /* \"#utility.yul\":732:755   */\n      sub\n        /* \"#utility.yul\":728:760   */\n      slt\n        /* \"#utility.yul\":725:844   */\n      iszero\n      tag_100\n      jumpi\n        /* \"#utility.yul\":763:842   */\n      tag_101\n      tag_97\n      jump\t// in\n    tag_101:\n        /* \"#utility.yul\":725:844   */\n    tag_100:\n        /* \"#utility.yul\":883:884   */\n      0x00\n        /* \"#utility.yul\":908:961   */\n      tag_102\n        /* \"#utility.yul\":953:960   */\n      dup6\n        /* \"#utility.yul\":944:950   */\n      dup3\n        /* \"#utility.yul\":933:942   */\n      dup7\n        /* \"#utility.yul\":929:951   */\n      add\n        /* \"#utility.yul\":908:961   */\n      tag_86\n      jump\t// in\n    tag_102:\n        /* \"#utility.yul\":898:961   */\n      swap3\n      pop\n        /* \"#utility.yul\":854:971   */\n      pop\n        /* \"#utility.yul\":1010:1012   */\n      0x20\n        /* \"#utility.yul\":1036:1089   */\n      tag_103\n        /* \"#utility.yul\":1081:1088   */\n      dup6\n        /* \"#utility.yul\":1072:1078   */\n      dup3\n        /* \"#utility.yul\":1061:1070   */\n      dup7\n        /* \"#utility.yul\":1057:1079   */\n      add\n        /* \"#utility.yul\":1036:1089   */\n      tag_86\n      jump\t// in\n    tag_103:\n        /* \"#utility.yul\":1026:1089   */\n      swap2\n      pop\n        /* \"#utility.yul\":981:1099   */\n      pop\n        /* \"#utility.yul\":632:1106   */\n      swap3\n      pop\n      swap3\n      swap1\n      pop\n      jump\t// out\n        /* \"#utility.yul\":1112:1877   */\n    tag_32:\n        /* \"#utility.yul\":1198:1204   */\n      0x00\n        /* \"#utility.yul\":1206:1212   */\n      dup1\n        /* \"#utility.yul\":1214:1220   */\n      0x00\n        /* \"#utility.yul\":1222:1228   */\n      dup1\n        /* \"#utility.yul\":1271:1274   */\n      0x80\n        /* \"#utility.yul\":1259:1268   */\n      dup6\n        /* \"#utility.yul\":1250:1257   */\n      dup8\n        /* \"#utility.yul\":1246:1269   */\n      sub\n        /* \"#utility.yul\":1242:1275   */\n      slt\n        /* \"#utility.yul\":1239:1359   */\n      iszero\n      tag_105\n      jumpi\n        /* \"#utility.yul\":1278:1357   */\n      tag_106\n      tag_97\n      jump\t// in\n    tag_106:\n        /* \"#utility.yul\":1239:1359   */\n    tag_105:\n        /* \"#utility.yul\":1398:1399   */\n      0x00\n        /* \"#utility.yul\":1423:1476   */\n      tag_107\n        /* \"#utility.yul\":1468:1475   */\n      dup8\n        /* \"#utility.yul\":1459:1465   */\n      dup3\n        /* \"#utility.yul\":1448:1457   */\n      dup9\n        /* \"#utility.yul\":1444:1466   */\n      add\n        /* \"#utility.yul\":1423:1476   */\n      tag_86\n      jump\t// in\n    tag_107:\n        /* \"#utility.yul\":1413:1476   */\n      swap5\n      pop\n        /* \"#utility.yul\":1369:1486   */\n      pop\n        /* \"#utility.yul\":1525:1527   */\n      0x20\n        /* \"#utility.yul\":1551:1604   */\n      tag_108\n        /* \"#utility.yul\":1596:1603   */\n      dup8\n        /* \"#utility.yul\":1587:1593   */\n      dup3\n        /* \"#utility.yul\":1576:1585   */\n      dup9\n        /* \"#utility.yul\":1572:1594   */\n      add\n        /* \"#utility.yul\":1551:1604   */\n      tag_86\n      jump\t// in\n    tag_108:\n        /* \"#utility.yul\":1541:1604   */\n      swap4\n      pop\n        /* \"#utility.yul\":1496:1614   */\n      pop\n        /* \"#utility.yul\":1653:1655   */\n      0x40\n        /* \"#utility.yul\":1679:1732   */\n      tag_109\n        /* \"#utility.yul\":1724:1731   */\n      dup8\n        /* \"#utility.yul\":1715:1721   */\n      dup3\n        /* \"#utility.yul\":1704:1713   */\n      dup9\n        /* \"#utility.yul\":1700:1722   */\n      add\n        /* \"#utility.yul\":1679:1732   */\n      tag_86\n      jump\t// in\n    tag_109:\n        /* \"#utility.yul\":1669:1732   */\n      swap3\n      pop\n        /* \"#utility.yul\":1624:1742   */\n      pop\n        /* \"#utility.yul\":1781:1783   */\n      0x60\n        /* \"#utility.yul\":1807:1860   */\n      tag_110\n        /* \"#utility.yul\":1852:1859   */\n      dup8\n        /* \"#utility.yul\":1843:1849   */\n      dup3\n        /* \"#utility.yul\":1832:1841   */\n      dup9\n        /* \"#utility.yul\":1828:1850   */\n      add\n        /* \"#utility.yul\":1807:1860   */\n      tag_90\n      jump\t// in\n    tag_110:\n        /* \"#utility.yul\":1797:1860   */\n      swap2\n      pop\n        /* \"#utility.yul\":1752:1870   */\n      pop\n        /* \"#utility.yul\":1112:1877   */\n      swap3\n      swap6\n      swap2\n      swap5\n      pop\n      swap3\n      pop\n      jump\t// out\n        /* \"#utility.yul\":1883:2357   */\n    tag_13:\n        /* \"#utility.yul\":1951:1957   */\n      0x00\n        /* \"#utility.yul\":1959:1965   */\n      dup1\n        /* \"#utility.yul\":2008:2010   */\n      0x40\n        /* \"#utility.yul\":1996:2005   */\n      dup4\n        /* \"#utility.yul\":1987:1994   */\n      dup6\n        /* \"#utility.yul\":1983:2006   */\n      sub\n        /* \"#utility.yul\":1979:2011   */\n      slt\n        /* \"#utility.yul\":1976:2095   */\n      iszero\n      tag_112\n      jumpi\n        /* \"#utility.yul\":2014:2093   */\n      tag_113\n      tag_97\n      jump\t// in\n    tag_113:\n        /* \"#utility.yul\":1976:2095   */\n    tag_112:\n        /* \"#utility.yul\":2134:2135   */\n      0x00\n        /* \"#utility.yul\":2159:2212   */\n      tag_114\n        /* \"#utility.yul\":2204:2211   */\n      dup6\n        /* \"#utility.yul\":2195:2201   */\n      dup3\n        /* \"#utility.yul\":2184:2193   */\n      dup7\n        /* \"#utility.yul\":2180:2202   */\n      add\n        /* \"#utility.yul\":2159:2212   */\n      tag_86\n      jump\t// in\n    tag_114:\n        /* \"#utility.yul\":2149:2212   */\n      swap3\n      pop\n        /* \"#utility.yul\":2105:2222   */\n      pop\n        /* \"#utility.yul\":2261:2263   */\n      0x20\n        /* \"#utility.yul\":2287:2340   */\n      tag_115\n        /* \"#utility.yul\":2332:2339   */\n      dup6\n        /* \"#utility.yul\":2323:2329   */\n      dup3\n        /* \"#utility.yul\":2312:2321   */\n      dup7\n        /* \"#utility.yul\":2308:2330   */\n      add\n        /* \"#utility.yul\":2287:2340   */\n      tag_90\n      jump\t// in\n    tag_115:\n        /* \"#utility.yul\":2277:2340   */\n      swap2\n      pop\n        /* \"#utility.yul\":2232:2350   */\n      pop\n        /* \"#utility.yul\":1883:2357   */\n      swap3\n      pop\n      swap3\n      swap1\n      pop\n      jump\t// out\n        /* \"#utility.yul\":2363:2472   */\n    tag_116:\n        /* \"#utility.yul\":2444:2465   */\n      tag_118\n        /* \"#utility.yul\":2459:2464   */\n      dup2\n        /* \"#utility.yul\":2444:2465   */\n      tag_119\n      jump\t// in\n    tag_118:\n        /* \"#utility.yul\":2439:2442   */\n      dup3\n        /* \"#utility.yul\":2432:2466   */\n      mstore\n        /* \"#utility.yul\":2363:2472   */\n      pop\n      pop\n      jump\t// out\n        /* \"#utility.yul\":2478:2844   */\n    tag_120:\n        /* \"#utility.yul\":2620:2623   */\n      0x00\n        /* \"#utility.yul\":2641:2708   */\n      tag_122\n        /* \"#utility.yul\":2705:2707   */\n      0x14\n        /* \"#utility.yul\":2700:2703   */\n      dup4\n        /* \"#utility.yul\":2641:2708   */\n      tag_123\n      jump\t// in\n    tag_122:\n        /* \"#utility.yul\":2634:2708   */\n      swap2\n      pop\n        /* \"#utility.yul\":2717:2810   */\n      tag_124\n        /* \"#utility.yul\":2806:2809   */\n      dup3\n        /* \"#utility.yul\":2717:2810   */\n      tag_125\n      jump\t// in\n    tag_124:\n        /* \"#utility.yul\":2835:2837   */\n      0x20\n        /* \"#utility.yul\":2830:2833   */\n      dup3\n        /* \"#utility.yul\":2826:2838   */\n      add\n        /* \"#utility.yul\":2819:2838   */\n      swap1\n      pop\n        /* \"#utility.yul\":2478:2844   */\n      swap2\n      swap1\n      pop\n      jump\t// out\n        /* \"#utility.yul\":2850:3216   */\n    tag_126:\n        /* \"#utility.yul\":2992:2995   */\n      0x00\n        /* \"#utility.yul\":3013:3080   */\n      tag_128\n        /* \"#utility.yul\":3077:3079   */\n      0x35\n        /* \"#utility.yul\":3072:3075   */\n      dup4\n        /* \"#utility.yul\":3013:3080   */\n      tag_123\n      jump\t// in\n    tag_128:\n        /* \"#utility.yul\":3006:3080   */\n      swap2\n      pop\n        /* \"#utility.yul\":3089:3182   */\n      tag_129\n        /* \"#utility.yul\":3178:3181   */\n      dup3\n        /* \"#utility.yul\":3089:3182   */\n      tag_130\n      jump\t// in\n    tag_129:\n        /* \"#utility.yul\":3207:3209   */\n      0x40\n        /* \"#utility.yul\":3202:3205   */\n      dup3\n        /* \"#utility.yul\":3198:3210   */\n      add\n        /* \"#utility.yul\":3191:3210   */\n      swap1\n      pop\n        /* \"#utility.yul\":2850:3216   */\n      swap2\n      swap1\n      pop\n      jump\t// out\n        /* \"#utility.yul\":3222:3586   */\n    tag_131:\n        /* \"#utility.yul\":3364:3367   */\n      0x00\n        /* \"#utility.yul\":3385:3451   */\n      tag_133\n        /* \"#utility.yul\":3449:3450   */\n      0x00\n        /* \"#utility.yul\":3444:3447   */\n      dup4\n        /* \"#utility.yul\":3385:3451   */\n      tag_123\n      jump\t// in\n    tag_133:\n        /* \"#utility.yul\":3378:3451   */\n      swap2\n      pop\n        /* \"#utility.yul\":3460:3553   */\n      tag_134\n        /* \"#utility.yul\":3549:3552   */\n      dup3\n        /* \"#utility.yul\":3460:3553   */\n      tag_135\n      jump\t// in\n    tag_134:\n        /* \"#utility.yul\":3578:3579   */\n      0x00\n        /* \"#utility.yul\":3573:3576   */\n      dup3\n        /* \"#utility.yul\":3569:3580   */\n      add\n        /* \"#utility.yul\":3562:3580   */\n      swap1\n      pop\n        /* \"#utility.yul\":3222:3586   */\n      swap2\n      swap1\n      pop\n      jump\t// out\n        /* \"#utility.yul\":3592:3958   */\n    tag_136:\n        /* \"#utility.yul\":3734:3737   */\n      0x00\n        /* \"#utility.yul\":3755:3822   */\n      tag_138\n        /* \"#utility.yul\":3819:3821   */\n      0x1d\n        /* \"#utility.yul\":3814:3817   */\n      dup4\n        /* \"#utility.yul\":3755:3822   */\n      tag_123\n      jump\t// in\n    tag_138:\n        /* \"#utility.yul\":3748:3822   */\n      swap2\n      pop\n        /* \"#utility.yul\":3831:3924   */\n      tag_139\n        /* \"#utility.yul\":3920:3923   */\n      dup3\n        /* \"#utility.yul\":3831:3924   */\n      tag_140\n      jump\t// in\n    tag_139:\n        /* \"#utility.yul\":3949:3951   */\n      0x20\n        /* \"#utility.yul\":3944:3947   */\n      dup3\n        /* \"#utility.yul\":3940:3952   */\n      add\n        /* \"#utility.yul\":3933:3952   */\n      swap1\n      pop\n        /* \"#utility.yul\":3592:3958   */\n      swap2\n      swap1\n      pop\n      jump\t// out\n        /* \"#utility.yul\":3964:4082   */\n    tag_141:\n        /* \"#utility.yul\":4051:4075   */\n      tag_143\n        /* \"#utility.yul\":4069:4074   */\n      dup2\n        /* \"#utility.yul\":4051:4075   */\n      tag_144\n      jump\t// in\n    tag_143:\n        /* \"#utility.yul\":4046:4049   */\n      dup3\n        /* \"#utility.yul\":4039:4076   */\n      mstore\n        /* \"#utility.yul\":3964:4082   */\n      pop\n      pop\n      jump\t// out\n        /* \"#utility.yul\":4088:4298   */\n    tag_16:\n        /* \"#utility.yul\":4175:4179   */\n      0x00\n        /* \"#utility.yul\":4213:4215   */\n      0x20\n        /* \"#utility.yul\":4202:4211   */\n      dup3\n        /* \"#utility.yul\":4198:4216   */\n      add\n        /* \"#utility.yul\":4190:4216   */\n      swap1\n      pop\n        /* \"#utility.yul\":4226:4291   */\n      tag_146\n        /* \"#utility.yul\":4288:4289   */\n      0x00\n        /* \"#utility.yul\":4277:4286   */\n      dup4\n        /* \"#utility.yul\":4273:4290   */\n      add\n        /* \"#utility.yul\":4264:4270   */\n      dup5\n        /* \"#utility.yul\":4226:4291   */\n      tag_116\n      jump\t// in\n    tag_146:\n        /* \"#utility.yul\":4088:4298   */\n      swap3\n      swap2\n      pop\n      pop\n      jump\t// out\n        /* \"#utility.yul\":4304:4723   */\n    tag_65:\n        /* \"#utility.yul\":4470:4474   */\n      0x00\n        /* \"#utility.yul\":4508:4510   */\n      0x20\n        /* \"#utility.yul\":4497:4506   */\n      dup3\n        /* \"#utility.yul\":4493:4511   */\n      add\n        /* \"#utility.yul\":4485:4511   */\n      swap1\n      pop\n        /* \"#utility.yul\":4557:4566   */\n      dup2\n        /* \"#utility.yul\":4551:4555   */\n      dup2\n        /* \"#utility.yul\":4547:4567   */\n      sub\n        /* \"#utility.yul\":4543:4544   */\n      0x00\n        /* \"#utility.yul\":4532:4541   */\n      dup4\n        /* \"#utility.yul\":4528:4545   */\n      add\n        /* \"#utility.yul\":4521:4568   */\n      mstore\n        /* \"#utility.yul\":4585:4716   */\n      tag_148\n        /* \"#utility.yul\":4711:4715   */\n      dup2\n        /* \"#utility.yul\":4585:4716   */\n      tag_120\n      jump\t// in\n    tag_148:\n        /* \"#utility.yul\":4577:4716   */\n      swap1\n      pop\n        /* \"#utility.yul\":4304:4723   */\n      swap2\n      swap1\n      pop\n      jump\t// out\n        /* \"#utility.yul\":4729:5148   */\n    tag_69:\n        /* \"#utility.yul\":4895:4899   */\n      0x00\n        /* \"#utility.yul\":4933:4935   */\n      0x20\n        /* \"#utility.yul\":4922:4931   */\n      dup3\n        /* \"#utility.yul\":4918:4936   */\n      add\n        /* \"#utility.yul\":4910:4936   */\n      swap1\n      pop\n        /* \"#utility.yul\":4982:4991   */\n      dup2\n        /* \"#utility.yul\":4976:4980   */\n      dup2\n        /* \"#utility.yul\":4972:4992   */\n      sub\n        /* \"#utility.yul\":4968:4969   */\n      0x00\n        /* \"#utility.yul\":4957:4966   */\n      dup4\n        /* \"#utility.yul\":4953:4970   */\n      add\n        /* \"#utility.yul\":4946:4993   */\n      mstore\n        /* \"#utility.yul\":5010:5141   */\n      tag_150\n        /* \"#utility.yul\":5136:5140   */\n      dup2\n        /* \"#utility.yul\":5010:5141   */\n      tag_126\n      jump\t// in\n    tag_150:\n        /* \"#utility.yul\":5002:5141   */\n      swap1\n      pop\n        /* \"#utility.yul\":4729:5148   */\n      swap2\n      swap1\n      pop\n      jump\t// out\n        /* \"#utility.yul\":5154:5573   */\n    tag_79:\n        /* \"#utility.yul\":5320:5324   */\n      0x00\n        /* \"#utility.yul\":5358:5360   */\n      0x20\n        /* \"#utility.yul\":5347:5356   */\n      dup3\n        /* \"#utility.yul\":5343:5361   */\n      add\n        /* \"#utility.yul\":5335:5361   */\n      swap1\n      pop\n        /* \"#utility.yul\":5407:5416   */\n      dup2\n        /* \"#utility.yul\":5401:5405   */\n      dup2\n        /* \"#utility.yul\":5397:5417   */\n      sub\n        /* \"#utility.yul\":5393:5394   */\n      0x00\n        /* \"#utility.yul\":5382:5391   */\n      dup4\n        /* \"#utility.yul\":5378:5395   */\n      add\n        /* \"#utility.yul\":5371:5418   */\n      mstore\n        /* \"#utility.yul\":5435:5566   */\n      tag_152\n        /* \"#utility.yul\":5561:5565   */\n      dup2\n        /* \"#utility.yul\":5435:5566   */\n      tag_131\n      jump\t// in\n    tag_152:\n        /* \"#utility.yul\":5427:5566   */\n      swap1\n      pop\n        /* \"#utility.yul\":5154:5573   */\n      swap2\n      swap1\n      pop\n      jump\t// out\n        /* \"#utility.yul\":5579:5998   */\n    tag_55:\n        /* \"#utility.yul\":5745:5749   */\n      0x00\n        /* \"#utility.yul\":5783:5785   */\n      0x20\n        /* \"#utility.yul\":5772:5781   */\n      dup3\n        /* \"#utility.yul\":5768:5786   */\n      add\n        /* \"#utility.yul\":5760:5786   */\n      swap1\n      pop\n        /* \"#utility.yul\":5832:5841   */\n      dup2\n        /* \"#utility.yul\":5826:5830   */\n      dup2\n        /* \"#utility.yul\":5822:5842   */\n      sub\n        /* \"#utility.yul\":5818:5819   */\n      0x00\n        /* \"#utility.yul\":5807:5816   */\n      dup4\n        /* \"#utility.yul\":5803:5820   */\n      add\n        /* \"#utility.yul\":5796:5843   */\n      mstore\n        /* \"#utility.yul\":5860:5991   */\n      tag_154\n        /* \"#utility.yul\":5986:5990   */\n      dup2\n        /* \"#utility.yul\":5860:5991   */\n      tag_136\n      jump\t// in\n    tag_154:\n        /* \"#utility.yul\":5852:5991   */\n      swap1\n      pop\n        /* \"#utility.yul\":5579:5998   */\n      swap2\n      swap1\n      pop\n      jump\t// out\n        /* \"#utility.yul\":6004:6226   */\n    tag_23:\n        /* \"#utility.yul\":6097:6101   */\n      0x00\n        /* \"#utility.yul\":6135:6137   */\n      0x20\n        /* \"#utility.yul\":6124:6133   */\n      dup3\n        /* \"#utility.yul\":6120:6138   */\n      add\n        /* \"#utility.yul\":6112:6138   */\n      swap1\n      pop\n        /* \"#utility.yul\":6148:6219   */\n      tag_156\n        /* \"#utility.yul\":6216:6217   */\n      0x00\n        /* \"#utility.yul\":6205:6214   */\n      dup4\n        /* \"#utility.yul\":6201:6218   */\n      add\n        /* \"#utility.yul\":6192:6198   */\n      dup5\n        /* \"#utility.yul\":6148:6219   */\n      tag_141\n      jump\t// in\n    tag_156:\n        /* \"#utility.yul\":6004:6226   */\n      swap3\n      swap2\n      pop\n      pop\n      jump\t// out\n        /* \"#utility.yul\":6313:6482   */\n    tag_123:\n        /* \"#utility.yul\":6397:6408   */\n      0x00\n        /* \"#utility.yul\":6431:6437   */\n      dup3\n        /* \"#utility.yul\":6426:6429   */\n      dup3\n        /* \"#utility.yul\":6419:6438   */\n      mstore\n        /* \"#utility.yul\":6471:6475   */\n      0x20\n        /* \"#utility.yul\":6466:6469   */\n      dup3\n        /* \"#utility.yul\":6462:6476   */\n      add\n        /* \"#utility.yul\":6447:6476   */\n      swap1\n      pop\n        /* \"#utility.yul\":6313:6482   */\n      swap3\n      swap2\n      pop\n      pop\n      jump\t// out\n        /* \"#utility.yul\":6488:6793   */\n    tag_59:\n        /* \"#utility.yul\":6528:6531   */\n      0x00\n        /* \"#utility.yul\":6547:6567   */\n      tag_161\n        /* \"#utility.yul\":6565:6566   */\n      dup3\n        /* \"#utility.yul\":6547:6567   */\n      tag_144\n      jump\t// in\n    tag_161:\n        /* \"#utility.yul\":6542:6567   */\n      swap2\n      pop\n        /* \"#utility.yul\":6581:6601   */\n      tag_162\n        /* \"#utility.yul\":6599:6600   */\n      dup4\n        /* \"#utility.yul\":6581:6601   */\n      tag_144\n      jump\t// in\n    tag_162:\n        /* \"#utility.yul\":6576:6601   */\n      swap3\n      pop\n        /* \"#utility.yul\":6735:6736   */\n      dup3\n        /* \"#utility.yul\":6667:6733   */\n      0xffffffffffffffffffffffffffffffffffffffffffffffffffffffffffffffff\n        /* \"#utility.yul\":6663:6737   */\n      sub\n        /* \"#utility.yul\":6660:6661   */\n      dup3\n        /* \"#utility.yul\":6657:6738   */\n      gt\n        /* \"#utility.yul\":6654:6761   */\n      iszero\n      tag_163\n      jumpi\n        /* \"#utility.yul\":6741:6759   */\n      tag_164\n      tag_165\n      jump\t// in\n    tag_164:\n        /* \"#utility.yul\":6654:6761   */\n    tag_163:\n        /* \"#utility.yul\":6785:6786   */\n      dup3\n        /* \"#utility.yul\":6782:6783   */\n      dup3\n        /* \"#utility.yul\":6778:6787   */\n      add\n        /* \"#utility.yul\":6771:6787   */\n      swap1\n      pop\n        /* \"#utility.yul\":6488:6793   */\n      swap3\n      swap2\n      pop\n      pop\n      jump\t// out\n        /* \"#utility.yul\":6799:6984   */\n    tag_57:\n        /* \"#utility.yul\":6839:6840   */\n      0x00\n        /* \"#utility.yul\":6856:6876   */\n      tag_167\n        /* \"#utility.yul\":6874:6875   */\n      dup3\n        /* \"#utility.yul\":6856:6876   */\n      tag_144\n      jump\t// in\n    tag_167:\n        /* \"#utility.yul\":6851:6876   */\n      swap2\n      pop\n        /* \"#utility.yul\":6890:6910   */\n      tag_168\n        /* \"#utility.yul\":6908:6909   */\n      dup4\n        /* \"#utility.yul\":6890:6910   */\n      tag_144\n      jump\t// in\n    tag_168:\n        /* \"#utility.yul\":6885:6910   */\n      swap3\n      pop\n        /* \"#utility.yul\":6929:6930   */\n      dup3\n        /* \"#utility.yul\":6919:6954   */\n      tag_169\n      jumpi\n        /* \"#utility.yul\":6934:6952   */\n      tag_170\n      tag_171\n      jump\t// in\n    tag_170:\n        /* \"#utility.yul\":6919:6954   */\n    tag_169:\n        /* \"#utility.yul\":6976:6977   */\n      dup3\n        /* \"#utility.yul\":6973:6974   */\n      dup3\n        /* \"#utility.yul\":6969:6978   */\n      div\n        /* \"#utility.yul\":6964:6978   */\n      swap1\n      pop\n        /* \"#utility.yul\":6799:6984   */\n      swap3\n      swap2\n      pop\n      pop\n      jump\t// out\n        /* \"#utility.yul\":6990:7181   */\n    tag_71:\n        /* \"#utility.yul\":7030:7034   */\n      0x00\n        /* \"#utility.yul\":7050:7070   */\n      tag_173\n        /* \"#utility.yul\":7068:7069   */\n      dup3\n        /* \"#utility.yul\":7050:7070   */\n      tag_144\n      jump\t// in\n    tag_173:\n        /* \"#utility.yul\":7045:7070   */\n      swap2\n      pop\n        /* \"#utility.yul\":7084:7104   */\n      tag_174\n        /* \"#utility.yul\":7102:7103   */\n      dup4\n        /* \"#utility.yul\":7084:7104   */\n      tag_144\n      jump\t// in\n    tag_174:\n        /* \"#utility.yul\":7079:7104   */\n      swap3\n      pop\n        /* \"#utility.yul\":7123:7124   */\n      dup3\n        /* \"#utility.yul\":7120:7121   */\n      dup3\n        /* \"#utility.yul\":7117:7125   */\n      lt\n        /* \"#utility.yul\":7114:7148   */\n      iszero\n      tag_175\n      jumpi\n        /* \"#utility.yul\":7128:7146   */\n      tag_176\n      tag_165\n      jump\t// in\n    tag_176:\n        /* \"#utility.yul\":7114:7148   */\n    tag_175:\n        /* \"#utility.yul\":7173:7174   */\n      dup3\n        /* \"#utility.yul\":7170:7171   */\n      dup3\n        /* \"#utility.yul\":7166:7175   */\n      sub\n        /* \"#utility.yul\":7158:7175   */\n      swap1\n      pop\n        /* \"#utility.yul\":6990:7181   */\n      swap3\n      swap2\n      pop\n      pop\n      jump\t// out\n        /* \"#utility.yul\":7187:7283   */\n    tag_177:\n        /* \"#utility.yul\":7224:7231   */\n      0x00\n        /* \"#utility.yul\":7253:7277   */\n      tag_179\n        /* \"#utility.yul\":7271:7276   */\n      dup3\n        /* \"#utility.yul\":7253:7277   */\n      tag_180\n      jump\t// in\n    tag_179:\n        /* \"#utility.yul\":7242:7277   */\n      swap1\n      pop\n        /* \"#utility.yul\":7187:7283   */\n      swap2\n      swap1\n      pop\n      jump\t// out\n        /* \"#utility.yul\":7289:7379   */\n    tag_119:\n        /* \"#utility.yul\":7323:7330   */\n      0x00\n        /* \"#utility.yul\":7366:7371   */\n      dup2\n        /* \"#utility.yul\":7359:7372   */\n      iszero\n        /* \"#utility.yul\":7352:7373   */\n      iszero\n        /* \"#utility.yul\":7341:7373   */\n      swap1\n      pop\n        /* \"#utility.yul\":7289:7379   */\n      swap2\n      swap1\n      pop\n      jump\t// out\n        /* \"#utility.yul\":7385:7511   */\n    tag_180:\n        /* \"#utility.yul\":7422:7429   */\n      0x00\n        /* \"#utility.yul\":7462:7504   */\n      0xffffffffffffffffffffffffffffffffffffffff\n        /* \"#utility.yul\":7455:7460   */\n      dup3\n        /* \"#utility.yul\":7451:7505   */\n      and\n        /* \"#utility.yul\":7440:7505   */\n      swap1\n      pop\n        /* \"#utility.yul\":7385:7511   */\n      swap2\n      swap1\n      pop\n      jump\t// out\n        /* \"#utility.yul\":7517:7594   */\n    tag_144:\n        /* \"#utility.yul\":7554:7561   */\n      0x00\n        /* \"#utility.yul\":7583:7588   */\n      dup2\n        /* \"#utility.yul\":7572:7588   */\n      swap1\n      pop\n        /* \"#utility.yul\":7517:7594   */\n      swap2\n      swap1\n      pop\n      jump\t// out\n        /* \"#utility.yul\":7600:7780   */\n    tag_165:\n        /* \"#utility.yul\":7648:7725   */\n      0x4e487b7100000000000000000000000000000000000000000000000000000000\n        /* \"#utility.yul\":7645:7646   */\n      0x00\n        /* \"#utility.yul\":7638:7726   */\n      mstore\n        /* \"#utility.yul\":7745:7749   */\n      0x11\n        /* \"#utility.yul\":7742:7743   */\n      0x04\n        /* \"#utility.yul\":7735:7750   */\n      mstore\n        /* \"#utility.yul\":7769:7773   */\n      0x24\n        /* \"#utility.yul\":7766:7767   */\n      0x00\n        /* \"#utility.yul\":7759:7774   */\n      revert\n        /* \"#utility.yul\":7786:7966   */\n    tag_171:\n        /* \"#utility.yul\":7834:7911   */\n      0x4e487b7100000000000000000000000000000000000000000000000000000000\n        /* \"#utility.yul\":7831:7832   */\n      0x00\n        /* \"#utility.yul\":7824:7912   */\n      mstore\n        /* \"#utility.yul\":7931:7935   */\n      0x12\n        /* \"#utility.yul\":7928:7929   */\n      0x04\n        /* \"#utility.yul\":7921:7936   */\n      mstore\n        /* \"#utility.yul\":7955:7959   */\n      0x24\n        /* \"#utility.yul\":7952:7953   */\n      0x00\n        /* \"#utility.yul\":7945:7960   */\n      revert\n        /* \"#utility.yul\":8095:8212   */\n    tag_97:\n        /* \"#utility.yul\":8204:8205   */\n      0x00\n        /* \"#utility.yul\":8201:8202   */\n      dup1\n        /* \"#utility.yul\":8194:8206   */\n      revert\n        /* \"#utility.yul\":8218:8388   */\n    tag_125:\n        /* \"#utility.yul\":8358:8380   */\n      0x496e73756666696369656e742062616c616e6365000000000000000000000000\n        /* \"#utility.yul\":8354:8355   */\n      0x00\n        /* \"#utility.yul\":8346:8352   */\n      dup3\n        /* \"#utility.yul\":8342:8356   */\n      add\n        /* \"#utility.yul\":8335:8381   */\n      mstore\n        /* \"#utility.yul\":8218:8388   */\n      pop\n      jump\t// out\n        /* \"#utility.yul\":8394:8634   */\n    tag_130:\n        /* \"#utility.yul\":8534:8568   */\n      0x44656c6567617465206163636f756e7420646f65736e27742068617665206163\n        /* \"#utility.yul\":8530:8531   */\n      0x00\n        /* \"#utility.yul\":8522:8528   */\n      dup3\n        /* \"#utility.yul\":8518:8532   */\n      add\n        /* \"#utility.yul\":8511:8569   */\n      mstore\n        /* \"#utility.yul\":8603:8626   */\n      0x6365737320746f20656e6f75676820746f6b656e730000000000000000000000\n        /* \"#utility.yul\":8598:8600   */\n      0x20\n        /* \"#utility.yul\":8590:8596   */\n      dup3\n        /* \"#utility.yul\":8586:8601   */\n      add\n        /* \"#utility.yul\":8579:8627   */\n      mstore\n        /* \"#utility.yul\":8394:8634   */\n      pop\n      jump\t// out\n        /* \"#utility.yul\":8640:8754   */\n    tag_135:\n      pop\n      jump\t// out\n        /* \"#utility.yul\":8760:8939   */\n    tag_140:\n        /* \"#utility.yul\":8900:8931   */\n      0x596f75206d757374206174206c6561737420627579203120746f6b656e000000\n        /* \"#utility.yul\":8896:8897   */\n      0x00\n        /* \"#utility.yul\":8888:8894   */\n      dup3\n        /* \"#utility.yul\":8884:8898   */\n      add\n        /* \"#utility.yul\":8877:8932   */\n      mstore\n        /* \"#utility.yul\":8760:8939   */\n      pop\n      jump\t// out\n        /* \"#utility.yul\":8945:9067   */\n    tag_89:\n        /* \"#utility.yul\":9018:9042   */\n      tag_194\n        /* \"#utility.yul\":9036:9041   */\n      dup2\n        /* \"#utility.yul\":9018:9042   */\n      tag_177\n      jump\t// in\n    tag_194:\n        /* \"#utility.yul\":9011:9016   */\n      dup2\n        /* \"#utility.yul\":9008:9043   */\n      eq\n        /* \"#utility.yul\":8998:9061   */\n      tag_195\n      jumpi\n        /* \"#utility.yul\":9057:9058   */\n      0x00\n        /* \"#utility.yul\":9054:9055   */\n      dup1\n        /* \"#utility.yul\":9047:9059   */\n      revert\n        /* \"#utility.yul\":8998:9061   */\n    tag_195:\n        /* \"#utility.yul\":8945:9067   */\n      pop\n      jump\t// out\n        /* \"#utility.yul\":9073:9195   */\n    tag_93:\n        /* \"#utility.yul\":9146:9170   */\n      tag_197\n        /* \"#utility.yul\":9164:9169   */\n      dup2\n        /* \"#utility.yul\":9146:9170   */\n      tag_144\n      jump\t// in\n    tag_197:\n        /* \"#utility.yul\":9139:9144   */\n      dup2\n        /* \"#utility.yul\":9136:9171   */\n      eq\n        /* \"#utility.yul\":9126:9189   */\n      tag_198\n      jumpi\n        /* \"#utility.yul\":9185:9186   */\n      0x00\n        /* \"#utility.yul\":9182:9183   */\n      dup1\n        /* \"#utility.yul\":9175:9187   */\n      revert\n        /* \"#utility.yul\":9126:9189   */\n    tag_198:\n        /* \"#utility.yul\":9073:9195   */\n      pop\n      jump\t// out\n\n    auxdata: 0xa2646970667358221220103b3d3651cd86a1330891e394be13705cc9de9c6129d5cc54d84f20110a445a64736f6c63430008070033\n}\n",
				"bytecode": {
					"linkReferences": {},
					"object": "6080604052620f424060005534801561001757600080fd5b50600054600160003373ffffffffffffffffffffffffffffffffffffffff1673ffffffffffffffffffffffffffffffffffffffff16815260200190815260200160002081905550610f5e8061006d6000396000f3fe6080604052600436106100705760003560e01c8063a5f611f21161004e578063a5f611f21461011f578063a9059cbb1461015c578063c4e41b2214610199578063e3d670d7146101c457610070565b8063095ea7b314610075578063626bc4c5146100b25780637e72fb52146100ef575b600080fd5b34801561008157600080fd5b5061009c60048036038101906100979190610b3f565b610201565b6040516100a99190610c29565b60405180910390f35b3480156100be57600080fd5b506100d960048036038101906100d49190610a98565b6102f3565b6040516100e69190610cc4565b60405180910390f35b61010960048036038101906101049190610a6b565b61037a565b6040516101169190610c29565b60405180910390f35b34801561012b57600080fd5b5061014660048036038101906101419190610ad8565b6104ee565b6040516101539190610c29565b60405180910390f35b34801561016857600080fd5b50610183600480360381019061017e9190610b3f565b6107e0565b6040516101909190610c29565b60405180910390f35b3480156101a557600080fd5b506101ae6109ef565b6040516101bb9190610cc4565b60405180910390f35b3480156101d057600080fd5b506101eb60048036038101906101e69190610a6b565b6109f8565b6040516101f89190610cc4565b60405180910390f35b600081600260003373ffffffffffffffffffffffffffffffffffffffff1673ffffffffffffffffffffffffffffffffffffffff16815260200190815260200160002060008573ffffffffffffffffffffffffffffffffffffffff1673ffffffffffffffffffffffffffffffffffffffff168152602001908152602001600020819055508273ffffffffffffffffffffffffffffffffffffffff163373ffffffffffffffffffffffffffffffffffffffff167f8c5be1e5ebec7d5bd14f71427d1e84f3dd0314c0f7b2291e5b200ac8c7c3b925846040516102e19190610cc4565b60405180910390a36001905092915050565b6000600260008473ffffffffffffffffffffffffffffffffffffffff1673ffffffffffffffffffffffffffffffffffffffff16815260200190815260200160002060008373ffffffffffffffffffffffffffffffffffffffff1673ffffffffffffffffffffffffffffffffffffffff16815260200190815260200160002054905092915050565b600066038d7ea4c680003410156103c6576040517f08c379a00000000000000000000000000000000000000000000000000000000081526004016103bd90610ca4565b60405180910390fd5b600066038d7ea4c68000346103db9190610d46565b905080600160008573ffffffffffffffffffffffffffffffffffffffff1673ffffffffffffffffffffffffffffffffffffffff168152602001908152602001600020546104289190610cf0565b600160008573ffffffffffffffffffffffffffffffffffffffff1673ffffffffffffffffffffffffffffffffffffffff16815260200190815260200160002081905550806000546104799190610cf0565b6000819055508273ffffffffffffffffffffffffffffffffffffffff163373ffffffffffffffffffffffffffffffffffffffff167fddf252ad1be2c89b69c2b068fc378daa952ba7f163c4a11628f55a4df523b3ef836040516104dc9190610cc4565b60405180910390a36001915050919050565b6000600160008673ffffffffffffffffffffffffffffffffffffffff1673ffffffffffffffffffffffffffffffffffffffff16815260200190815260200160002054821115610572576040517f08c379a000000000000000000000000000000000000000000000000000000000815260040161056990610c44565b60405180910390fd5b61057c85856102f3565b8211156105be576040517f08c379a00000000000000000000000000000000000000000000000000000000081526004016105b590610c64565b60405180910390fd5b81600160008773ffffffffffffffffffffffffffffffffffffffff1673ffffffffffffffffffffffffffffffffffffffff168152602001908152602001600020546106099190610d77565b600160008773ffffffffffffffffffffffffffffffffffffffff1673ffffffffffffffffffffffffffffffffffffffff168152602001908152602001600020819055508161065786866102f3565b6106619190610d77565b600260008773ffffffffffffffffffffffffffffffffffffffff1673ffffffffffffffffffffffffffffffffffffffff16815260200190815260200160002060008673ffffffffffffffffffffffffffffffffffffffff1673ffffffffffffffffffffffffffffffffffffffff1681526020019081526020016000208190555081600160008573ffffffffffffffffffffffffffffffffffffffff1673ffffffffffffffffffffffffffffffffffffffff1681526020019081526020016000205461072c9190610cf0565b600160008573ffffffffffffffffffffffffffffffffffffffff1673ffffffffffffffffffffffffffffffffffffffff168152602001908152602001600020819055508273ffffffffffffffffffffffffffffffffffffffff168573ffffffffffffffffffffffffffffffffffffffff167fddf252ad1be2c89b69c2b068fc378daa952ba7f163c4a11628f55a4df523b3ef846040516107cc9190610cc4565b60405180910390a360019050949350505050565b6000600160003373ffffffffffffffffffffffffffffffffffffffff1673ffffffffffffffffffffffffffffffffffffffff16815260200190815260200160002054821115610864576040517f08c379a000000000000000000000000000000000000000000000000000000000815260040161085b90610c84565b60405180910390fd5b81600160003373ffffffffffffffffffffffffffffffffffffffff1673ffffffffffffffffffffffffffffffffffffffff168152602001908152602001600020546108af9190610d77565b600160003373ffffffffffffffffffffffffffffffffffffffff1673ffffffffffffffffffffffffffffffffffffffff1681526020019081526020016000208190555081600160008573ffffffffffffffffffffffffffffffffffffffff1673ffffffffffffffffffffffffffffffffffffffff1681526020019081526020016000205461093d9190610cf0565b600160008573ffffffffffffffffffffffffffffffffffffffff1673ffffffffffffffffffffffffffffffffffffffff168152602001908152602001600020819055508273ffffffffffffffffffffffffffffffffffffffff163373ffffffffffffffffffffffffffffffffffffffff167fddf252ad1be2c89b69c2b068fc378daa952ba7f163c4a11628f55a4df523b3ef846040516109dd9190610cc4565b60405180910390a36001905092915050565b60008054905090565b6000600160008373ffffffffffffffffffffffffffffffffffffffff1673ffffffffffffffffffffffffffffffffffffffff168152602001908152602001600020549050919050565b600081359050610a5081610efa565b92915050565b600081359050610a6581610f11565b92915050565b600060208284031215610a8157610a80610e51565b5b6000610a8f84828501610a41565b91505092915050565b60008060408385031215610aaf57610aae610e51565b5b6000610abd85828601610a41565b9250506020610ace85828601610a41565b9150509250929050565b60008060008060808587031215610af257610af1610e51565b5b6000610b0087828801610a41565b9450506020610b1187828801610a41565b9350506040610b2287828801610a41565b9250506060610b3387828801610a56565b91505092959194509250565b60008060408385031215610b5657610b55610e51565b5b6000610b6485828601610a41565b9250506020610b7585828601610a56565b9150509250929050565b610b8881610dbd565b82525050565b6000610b9b601483610cdf565b9150610ba682610e56565b602082019050919050565b6000610bbe603583610cdf565b9150610bc982610e7f565b604082019050919050565b6000610be1600083610cdf565b9150610bec82610ece565b600082019050919050565b6000610c04601d83610cdf565b9150610c0f82610ed1565b602082019050919050565b610c2381610de9565b82525050565b6000602082019050610c3e6000830184610b7f565b92915050565b60006020820190508181036000830152610c5d81610b8e565b9050919050565b60006020820190508181036000830152610c7d81610bb1565b9050919050565b60006020820190508181036000830152610c9d81610bd4565b9050919050565b60006020820190508181036000830152610cbd81610bf7565b9050919050565b6000602082019050610cd96000830184610c1a565b92915050565b600082825260208201905092915050565b6000610cfb82610de9565b9150610d0683610de9565b9250827fffffffffffffffffffffffffffffffffffffffffffffffffffffffffffffffff03821115610d3b57610d3a610df3565b5b828201905092915050565b6000610d5182610de9565b9150610d5c83610de9565b925082610d6c57610d6b610e22565b5b828204905092915050565b6000610d8282610de9565b9150610d8d83610de9565b925082821015610da057610d9f610df3565b5b828203905092915050565b6000610db682610dc9565b9050919050565b60008115159050919050565b600073ffffffffffffffffffffffffffffffffffffffff82169050919050565b6000819050919050565b7f4e487b7100000000000000000000000000000000000000000000000000000000600052601160045260246000fd5b7f4e487b7100000000000000000000000000000000000000000000000000000000600052601260045260246000fd5b600080fd5b7f496e73756666696369656e742062616c616e6365000000000000000000000000600082015250565b7f44656c6567617465206163636f756e7420646f65736e2774206861766520616360008201527f6365737320746f20656e6f75676820746f6b656e730000000000000000000000602082015250565b50565b7f596f75206d757374206174206c6561737420627579203120746f6b656e000000600082015250565b610f0381610dab565b8114610f0e57600080fd5b50565b610f1a81610de9565b8114610f2557600080fd5b5056fea2646970667358221220103b3d3651cd86a1330891e394be13705cc9de9c6129d5cc54d84f20110a445a64736f6c63430008070033",
					"opcodes": "PUSH1 0x80 PUSH1 0x40 MSTORE PUSH3 0xF4240 PUSH1 0x0 SSTORE CALLVALUE DUP1 ISZERO PUSH2 0x17 JUMPI PUSH1 0x0 DUP1 REVERT JUMPDEST POP PUSH1 0x0 SLOAD PUSH1 0x1 PUSH1 0x0 CALLER PUSH20 0xFFFFFFFFFFFFFFFFFFFFFFFFFFFFFFFFFFFFFFFF AND PUSH20 0xFFFFFFFFFFFFFFFFFFFFFFFFFFFFFFFFFFFFFFFF AND DUP2 MSTORE PUSH1 0x20 ADD SWAP1 DUP2 MSTORE PUSH1 0x20 ADD PUSH1 0x0 KECCAK256 DUP2 SWAP1 SSTORE POP PUSH2 0xF5E DUP1 PUSH2 0x6D PUSH1 0x0 CODECOPY PUSH1 0x0 RETURN INVALID PUSH1 0x80 PUSH1 0x40 MSTORE PUSH1 0x4 CALLDATASIZE LT PUSH2 0x70 JUMPI PUSH1 0x0 CALLDATALOAD PUSH1 0xE0 SHR DUP1 PUSH4 0xA5F611F2 GT PUSH2 0x4E JUMPI DUP1 PUSH4 0xA5F611F2 EQ PUSH2 0x11F JUMPI DUP1 PUSH4 0xA9059CBB EQ PUSH2 0x15C JUMPI DUP1 PUSH4 0xC4E41B22 EQ PUSH2 0x199 JUMPI DUP1 PUSH4 0xE3D670D7 EQ PUSH2 0x1C4 JUMPI PUSH2 0x70 JUMP JUMPDEST DUP1 PUSH4 0x95EA7B3 EQ PUSH2 0x75 JUMPI DUP1 PUSH4 0x626BC4C5 EQ PUSH2 0xB2 JUMPI DUP1 PUSH4 0x7E72FB52 EQ PUSH2 0xEF JUMPI JUMPDEST PUSH1 0x0 DUP1 REVERT JUMPDEST CALLVALUE DUP1 ISZERO PUSH2 0x81 JUMPI PUSH1 0x0 DUP1 REVERT JUMPDEST POP PUSH2 0x9C PUSH1 0x4 DUP1 CALLDATASIZE SUB DUP2 ADD SWAP1 PUSH2 0x97 SWAP2 SWAP1 PUSH2 0xB3F JUMP JUMPDEST PUSH2 0x201 JUMP JUMPDEST PUSH1 0x40 MLOAD PUSH2 0xA9 SWAP2 SWAP1 PUSH2 0xC29 JUMP JUMPDEST PUSH1 0x40 MLOAD DUP1 SWAP2 SUB SWAP1 RETURN JUMPDEST CALLVALUE DUP1 ISZERO PUSH2 0xBE JUMPI PUSH1 0x0 DUP1 REVERT JUMPDEST POP PUSH2 0xD9 PUSH1 0x4 DUP1 CALLDATASIZE SUB DUP2 ADD SWAP1 PUSH2 0xD4 SWAP2 SWAP1 PUSH2 0xA98 JUMP JUMPDEST PUSH2 0x2F3 JUMP JUMPDEST PUSH1 0x40 MLOAD PUSH2 0xE6 SWAP2 SWAP1 PUSH2 0xCC4 JUMP JUMPDEST PUSH1 0x40 MLOAD DUP1 SWAP2 SUB SWAP1 RETURN JUMPDEST PUSH2 0x109 PUSH1 0x4 DUP1 CALLDATASIZE SUB DUP2 ADD SWAP1 PUSH2 0x104 SWAP2 SWAP1 PUSH2 0xA6B JUMP JUMPDEST PUSH2 0x37A JUMP JUMPDEST PUSH1 0x40 MLOAD PUSH2 0x116 SWAP2 SWAP1 PUSH2 0xC29 JUMP JUMPDEST PUSH1 0x40 MLOAD DUP1 SWAP2 SUB SWAP1 RETURN JUMPDEST CALLVALUE DUP1 ISZERO PUSH2 0x12B JUMPI PUSH1 0x0 DUP1 REVERT JUMPDEST POP PUSH2 0x146 PUSH1 0x4 DUP1 CALLDATASIZE SUB DUP2 ADD SWAP1 PUSH2 0x141 SWAP2 SWAP1 PUSH2 0xAD8 JUMP JUMPDEST PUSH2 0x4EE JUMP JUMPDEST PUSH1 0x40 MLOAD PUSH2 0x153 SWAP2 SWAP1 PUSH2 0xC29 JUMP JUMPDEST PUSH1 0x40 MLOAD DUP1 SWAP2 SUB SWAP1 RETURN JUMPDEST CALLVALUE DUP1 ISZERO PUSH2 0x168 JUMPI PUSH1 0x0 DUP1 REVERT JUMPDEST POP PUSH2 0x183 PUSH1 0x4 DUP1 CALLDATASIZE SUB DUP2 ADD SWAP1 PUSH2 0x17E SWAP2 SWAP1 PUSH2 0xB3F JUMP JUMPDEST PUSH2 0x7E0 JUMP JUMPDEST PUSH1 0x40 MLOAD PUSH2 0x190 SWAP2 SWAP1 PUSH2 0xC29 JUMP JUMPDEST PUSH1 0x40 MLOAD DUP1 SWAP2 SUB SWAP1 RETURN JUMPDEST CALLVALUE DUP1 ISZERO PUSH2 0x1A5 JUMPI PUSH1 0x0 DUP1 REVERT JUMPDEST POP PUSH2 0x1AE PUSH2 0x9EF JUMP JUMPDEST PUSH1 0x40 MLOAD PUSH2 0x1BB SWAP2 SWAP1 PUSH2 0xCC4 JUMP JUMPDEST PUSH1 0x40 MLOAD DUP1 SWAP2 SUB SWAP1 RETURN JUMPDEST CALLVALUE DUP1 ISZERO PUSH2 0x1D0 JUMPI PUSH1 0x0 DUP1 REVERT JUMPDEST POP PUSH2 0x1EB PUSH1 0x4 DUP1 CALLDATASIZE SUB DUP2 ADD SWAP1 PUSH2 0x1E6 SWAP2 SWAP1 PUSH2 0xA6B JUMP JUMPDEST PUSH2 0x9F8 JUMP JUMPDEST PUSH1 0x40 MLOAD PUSH2 0x1F8 SWAP2 SWAP1 PUSH2 0xCC4 JUMP JUMPDEST PUSH1 0x40 MLOAD DUP1 SWAP2 SUB SWAP1 RETURN JUMPDEST PUSH1 0x0 DUP2 PUSH1 0x2 PUSH1 0x0 CALLER PUSH20 0xFFFFFFFFFFFFFFFFFFFFFFFFFFFFFFFFFFFFFFFF AND PUSH20 0xFFFFFFFFFFFFFFFFFFFFFFFFFFFFFFFFFFFFFFFF AND DUP2 MSTORE PUSH1 0x20 ADD SWAP1 DUP2 MSTORE PUSH1 0x20 ADD PUSH1 0x0 KECCAK256 PUSH1 0x0 DUP6 PUSH20 0xFFFFFFFFFFFFFFFFFFFFFFFFFFFFFFFFFFFFFFFF AND PUSH20 0xFFFFFFFFFFFFFFFFFFFFFFFFFFFFFFFFFFFFFFFF AND DUP2 MSTORE PUSH1 0x20 ADD SWAP1 DUP2 MSTORE PUSH1 0x20 ADD PUSH1 0x0 KECCAK256 DUP2 SWAP1 SSTORE POP DUP3 PUSH20 0xFFFFFFFFFFFFFFFFFFFFFFFFFFFFFFFFFFFFFFFF AND CALLER PUSH20 0xFFFFFFFFFFFFFFFFFFFFFFFFFFFFFFFFFFFFFFFF AND PUSH32 0x8C5BE1E5EBEC7D5BD14F71427D1E84F3DD0314C0F7B2291E5B200AC8C7C3B925 DUP5 PUSH1 0x40 MLOAD PUSH2 0x2E1 SWAP2 SWAP1 PUSH2 0xCC4 JUMP JUMPDEST PUSH1 0x40 MLOAD DUP1 SWAP2 SUB SWAP1 LOG3 PUSH1 0x1 SWAP1 POP SWAP3 SWAP2 POP POP JUMP JUMPDEST PUSH1 0x0 PUSH1 0x2 PUSH1 0x0 DUP5 PUSH20 0xFFFFFFFFFFFFFFFFFFFFFFFFFFFFFFFFFFFFFFFF AND PUSH20 0xFFFFFFFFFFFFFFFFFFFFFFFFFFFFFFFFFFFFFFFF AND DUP2 MSTORE PUSH1 0x20 ADD SWAP1 DUP2 MSTORE PUSH1 0x20 ADD PUSH1 0x0 KECCAK256 PUSH1 0x0 DUP4 PUSH20 0xFFFFFFFFFFFFFFFFFFFFFFFFFFFFFFFFFFFFFFFF AND PUSH20 0xFFFFFFFFFFFFFFFFFFFFFFFFFFFFFFFFFFFFFFFF AND DUP2 MSTORE PUSH1 0x20 ADD SWAP1 DUP2 MSTORE PUSH1 0x20 ADD PUSH1 0x0 KECCAK256 SLOAD SWAP1 POP SWAP3 SWAP2 POP POP JUMP JUMPDEST PUSH1 0x0 PUSH7 0x38D7EA4C68000 CALLVALUE LT ISZERO PUSH2 0x3C6 JUMPI PUSH1 0x40 MLOAD PUSH32 0x8C379A000000000000000000000000000000000000000000000000000000000 DUP2 MSTORE PUSH1 0x4 ADD PUSH2 0x3BD SWAP1 PUSH2 0xCA4 JUMP JUMPDEST PUSH1 0x40 MLOAD DUP1 SWAP2 SUB SWAP1 REVERT JUMPDEST PUSH1 0x0 PUSH7 0x38D7EA4C68000 CALLVALUE PUSH2 0x3DB SWAP2 SWAP1 PUSH2 0xD46 JUMP JUMPDEST SWAP1 POP DUP1 PUSH1 0x1 PUSH1 0x0 DUP6 PUSH20 0xFFFFFFFFFFFFFFFFFFFFFFFFFFFFFFFFFFFFFFFF AND PUSH20 0xFFFFFFFFFFFFFFFFFFFFFFFFFFFFFFFFFFFFFFFF AND DUP2 MSTORE PUSH1 0x20 ADD SWAP1 DUP2 MSTORE PUSH1 0x20 ADD PUSH1 0x0 KECCAK256 SLOAD PUSH2 0x428 SWAP2 SWAP1 PUSH2 0xCF0 JUMP JUMPDEST PUSH1 0x1 PUSH1 0x0 DUP6 PUSH20 0xFFFFFFFFFFFFFFFFFFFFFFFFFFFFFFFFFFFFFFFF AND PUSH20 0xFFFFFFFFFFFFFFFFFFFFFFFFFFFFFFFFFFFFFFFF AND DUP2 MSTORE PUSH1 0x20 ADD SWAP1 DUP2 MSTORE PUSH1 0x20 ADD PUSH1 0x0 KECCAK256 DUP2 SWAP1 SSTORE POP DUP1 PUSH1 0x0 SLOAD PUSH2 0x479 SWAP2 SWAP1 PUSH2 0xCF0 JUMP JUMPDEST PUSH1 0x0 DUP2 SWAP1 SSTORE POP DUP3 PUSH20 0xFFFFFFFFFFFFFFFFFFFFFFFFFFFFFFFFFFFFFFFF AND CALLER PUSH20 0xFFFFFFFFFFFFFFFFFFFFFFFFFFFFFFFFFFFFFFFF AND PUSH32 0xDDF252AD1BE2C89B69C2B068FC378DAA952BA7F163C4A11628F55A4DF523B3EF DUP4 PUSH1 0x40 MLOAD PUSH2 0x4DC SWAP2 SWAP1 PUSH2 0xCC4 JUMP JUMPDEST PUSH1 0x40 MLOAD DUP1 SWAP2 SUB SWAP1 LOG3 PUSH1 0x1 SWAP2 POP POP SWAP2 SWAP1 POP JUMP JUMPDEST PUSH1 0x0 PUSH1 0x1 PUSH1 0x0 DUP7 PUSH20 0xFFFFFFFFFFFFFFFFFFFFFFFFFFFFFFFFFFFFFFFF AND PUSH20 0xFFFFFFFFFFFFFFFFFFFFFFFFFFFFFFFFFFFFFFFF AND DUP2 MSTORE PUSH1 0x20 ADD SWAP1 DUP2 MSTORE PUSH1 0x20 ADD PUSH1 0x0 KECCAK256 SLOAD DUP3 GT ISZERO PUSH2 0x572 JUMPI PUSH1 0x40 MLOAD PUSH32 0x8C379A000000000000000000000000000000000000000000000000000000000 DUP2 MSTORE PUSH1 0x4 ADD PUSH2 0x569 SWAP1 PUSH2 0xC44 JUMP JUMPDEST PUSH1 0x40 MLOAD DUP1 SWAP2 SUB SWAP1 REVERT JUMPDEST PUSH2 0x57C DUP6 DUP6 PUSH2 0x2F3 JUMP JUMPDEST DUP3 GT ISZERO PUSH2 0x5BE JUMPI PUSH1 0x40 MLOAD PUSH32 0x8C379A000000000000000000000000000000000000000000000000000000000 DUP2 MSTORE PUSH1 0x4 ADD PUSH2 0x5B5 SWAP1 PUSH2 0xC64 JUMP JUMPDEST PUSH1 0x40 MLOAD DUP1 SWAP2 SUB SWAP1 REVERT JUMPDEST DUP2 PUSH1 0x1 PUSH1 0x0 DUP8 PUSH20 0xFFFFFFFFFFFFFFFFFFFFFFFFFFFFFFFFFFFFFFFF AND PUSH20 0xFFFFFFFFFFFFFFFFFFFFFFFFFFFFFFFFFFFFFFFF AND DUP2 MSTORE PUSH1 0x20 ADD SWAP1 DUP2 MSTORE PUSH1 0x20 ADD PUSH1 0x0 KECCAK256 SLOAD PUSH2 0x609 SWAP2 SWAP1 PUSH2 0xD77 JUMP JUMPDEST PUSH1 0x1 PUSH1 0x0 DUP8 PUSH20 0xFFFFFFFFFFFFFFFFFFFFFFFFFFFFFFFFFFFFFFFF AND PUSH20 0xFFFFFFFFFFFFFFFFFFFFFFFFFFFFFFFFFFFFFFFF AND DUP2 MSTORE PUSH1 0x20 ADD SWAP1 DUP2 MSTORE PUSH1 0x20 ADD PUSH1 0x0 KECCAK256 DUP2 SWAP1 SSTORE POP DUP2 PUSH2 0x657 DUP7 DUP7 PUSH2 0x2F3 JUMP JUMPDEST PUSH2 0x661 SWAP2 SWAP1 PUSH2 0xD77 JUMP JUMPDEST PUSH1 0x2 PUSH1 0x0 DUP8 PUSH20 0xFFFFFFFFFFFFFFFFFFFFFFFFFFFFFFFFFFFFFFFF AND PUSH20 0xFFFFFFFFFFFFFFFFFFFFFFFFFFFFFFFFFFFFFFFF AND DUP2 MSTORE PUSH1 0x20 ADD SWAP1 DUP2 MSTORE PUSH1 0x20 ADD PUSH1 0x0 KECCAK256 PUSH1 0x0 DUP7 PUSH20 0xFFFFFFFFFFFFFFFFFFFFFFFFFFFFFFFFFFFFFFFF AND PUSH20 0xFFFFFFFFFFFFFFFFFFFFFFFFFFFFFFFFFFFFFFFF AND DUP2 MSTORE PUSH1 0x20 ADD SWAP1 DUP2 MSTORE PUSH1 0x20 ADD PUSH1 0x0 KECCAK256 DUP2 SWAP1 SSTORE POP DUP2 PUSH1 0x1 PUSH1 0x0 DUP6 PUSH20 0xFFFFFFFFFFFFFFFFFFFFFFFFFFFFFFFFFFFFFFFF AND PUSH20 0xFFFFFFFFFFFFFFFFFFFFFFFFFFFFFFFFFFFFFFFF AND DUP2 MSTORE PUSH1 0x20 ADD SWAP1 DUP2 MSTORE PUSH1 0x20 ADD PUSH1 0x0 KECCAK256 SLOAD PUSH2 0x72C SWAP2 SWAP1 PUSH2 0xCF0 JUMP JUMPDEST PUSH1 0x1 PUSH1 0x0 DUP6 PUSH20 0xFFFFFFFFFFFFFFFFFFFFFFFFFFFFFFFFFFFFFFFF AND PUSH20 0xFFFFFFFFFFFFFFFFFFFFFFFFFFFFFFFFFFFFFFFF AND DUP2 MSTORE PUSH1 0x20 ADD SWAP1 DUP2 MSTORE PUSH1 0x20 ADD PUSH1 0x0 KECCAK256 DUP2 SWAP1 SSTORE POP DUP3 PUSH20 0xFFFFFFFFFFFFFFFFFFFFFFFFFFFFFFFFFFFFFFFF AND DUP6 PUSH20 0xFFFFFFFFFFFFFFFFFFFFFFFFFFFFFFFFFFFFFFFF AND PUSH32 0xDDF252AD1BE2C89B69C2B068FC378DAA952BA7F163C4A11628F55A4DF523B3EF DUP5 PUSH1 0x40 MLOAD PUSH2 0x7CC SWAP2 SWAP1 PUSH2 0xCC4 JUMP JUMPDEST PUSH1 0x40 MLOAD DUP1 SWAP2 SUB SWAP1 LOG3 PUSH1 0x1 SWAP1 POP SWAP5 SWAP4 POP POP POP POP JUMP JUMPDEST PUSH1 0x0 PUSH1 0x1 PUSH1 0x0 CALLER PUSH20 0xFFFFFFFFFFFFFFFFFFFFFFFFFFFFFFFFFFFFFFFF AND PUSH20 0xFFFFFFFFFFFFFFFFFFFFFFFFFFFFFFFFFFFFFFFF AND DUP2 MSTORE PUSH1 0x20 ADD SWAP1 DUP2 MSTORE PUSH1 0x20 ADD PUSH1 0x0 KECCAK256 SLOAD DUP3 GT ISZERO PUSH2 0x864 JUMPI PUSH1 0x40 MLOAD PUSH32 0x8C379A000000000000000000000000000000000000000000000000000000000 DUP2 MSTORE PUSH1 0x4 ADD PUSH2 0x85B SWAP1 PUSH2 0xC84 JUMP JUMPDEST PUSH1 0x40 MLOAD DUP1 SWAP2 SUB SWAP1 REVERT JUMPDEST DUP2 PUSH1 0x1 PUSH1 0x0 CALLER PUSH20 0xFFFFFFFFFFFFFFFFFFFFFFFFFFFFFFFFFFFFFFFF AND PUSH20 0xFFFFFFFFFFFFFFFFFFFFFFFFFFFFFFFFFFFFFFFF AND DUP2 MSTORE PUSH1 0x20 ADD SWAP1 DUP2 MSTORE PUSH1 0x20 ADD PUSH1 0x0 KECCAK256 SLOAD PUSH2 0x8AF SWAP2 SWAP1 PUSH2 0xD77 JUMP JUMPDEST PUSH1 0x1 PUSH1 0x0 CALLER PUSH20 0xFFFFFFFFFFFFFFFFFFFFFFFFFFFFFFFFFFFFFFFF AND PUSH20 0xFFFFFFFFFFFFFFFFFFFFFFFFFFFFFFFFFFFFFFFF AND DUP2 MSTORE PUSH1 0x20 ADD SWAP1 DUP2 MSTORE PUSH1 0x20 ADD PUSH1 0x0 KECCAK256 DUP2 SWAP1 SSTORE POP DUP2 PUSH1 0x1 PUSH1 0x0 DUP6 PUSH20 0xFFFFFFFFFFFFFFFFFFFFFFFFFFFFFFFFFFFFFFFF AND PUSH20 0xFFFFFFFFFFFFFFFFFFFFFFFFFFFFFFFFFFFFFFFF AND DUP2 MSTORE PUSH1 0x20 ADD SWAP1 DUP2 MSTORE PUSH1 0x20 ADD PUSH1 0x0 KECCAK256 SLOAD PUSH2 0x93D SWAP2 SWAP1 PUSH2 0xCF0 JUMP JUMPDEST PUSH1 0x1 PUSH1 0x0 DUP6 PUSH20 0xFFFFFFFFFFFFFFFFFFFFFFFFFFFFFFFFFFFFFFFF AND PUSH20 0xFFFFFFFFFFFFFFFFFFFFFFFFFFFFFFFFFFFFFFFF AND DUP2 MSTORE PUSH1 0x20 ADD SWAP1 DUP2 MSTORE PUSH1 0x20 ADD PUSH1 0x0 KECCAK256 DUP2 SWAP1 SSTORE POP DUP3 PUSH20 0xFFFFFFFFFFFFFFFFFFFFFFFFFFFFFFFFFFFFFFFF AND CALLER PUSH20 0xFFFFFFFFFFFFFFFFFFFFFFFFFFFFFFFFFFFFFFFF AND PUSH32 0xDDF252AD1BE2C89B69C2B068FC378DAA952BA7F163C4A11628F55A4DF523B3EF DUP5 PUSH1 0x40 MLOAD PUSH2 0x9DD SWAP2 SWAP1 PUSH2 0xCC4 JUMP JUMPDEST PUSH1 0x40 MLOAD DUP1 SWAP2 SUB SWAP1 LOG3 PUSH1 0x1 SWAP1 POP SWAP3 SWAP2 POP POP JUMP JUMPDEST PUSH1 0x0 DUP1 SLOAD SWAP1 POP SWAP1 JUMP JUMPDEST PUSH1 0x0 PUSH1 0x1 PUSH1 0x0 DUP4 PUSH20 0xFFFFFFFFFFFFFFFFFFFFFFFFFFFFFFFFFFFFFFFF AND PUSH20 0xFFFFFFFFFFFFFFFFFFFFFFFFFFFFFFFFFFFFFFFF AND DUP2 MSTORE PUSH1 0x20 ADD SWAP1 DUP2 MSTORE PUSH1 0x20 ADD PUSH1 0x0 KECCAK256 SLOAD SWAP1 POP SWAP2 SWAP1 POP JUMP JUMPDEST PUSH1 0x0 DUP2 CALLDATALOAD SWAP1 POP PUSH2 0xA50 DUP2 PUSH2 0xEFA JUMP JUMPDEST SWAP3 SWAP2 POP POP JUMP JUMPDEST PUSH1 0x0 DUP2 CALLDATALOAD SWAP1 POP PUSH2 0xA65 DUP2 PUSH2 0xF11 JUMP JUMPDEST SWAP3 SWAP2 POP POP JUMP JUMPDEST PUSH1 0x0 PUSH1 0x20 DUP3 DUP5 SUB SLT ISZERO PUSH2 0xA81 JUMPI PUSH2 0xA80 PUSH2 0xE51 JUMP JUMPDEST JUMPDEST PUSH1 0x0 PUSH2 0xA8F DUP5 DUP3 DUP6 ADD PUSH2 0xA41 JUMP JUMPDEST SWAP2 POP POP SWAP3 SWAP2 POP POP JUMP JUMPDEST PUSH1 0x0 DUP1 PUSH1 0x40 DUP4 DUP6 SUB SLT ISZERO PUSH2 0xAAF JUMPI PUSH2 0xAAE PUSH2 0xE51 JUMP JUMPDEST JUMPDEST PUSH1 0x0 PUSH2 0xABD DUP6 DUP3 DUP7 ADD PUSH2 0xA41 JUMP JUMPDEST SWAP3 POP POP PUSH1 0x20 PUSH2 0xACE DUP6 DUP3 DUP7 ADD PUSH2 0xA41 JUMP JUMPDEST SWAP2 POP POP SWAP3 POP SWAP3 SWAP1 POP JUMP JUMPDEST PUSH1 0x0 DUP1 PUSH1 0x0 DUP1 PUSH1 0x80 DUP6 DUP8 SUB SLT ISZERO PUSH2 0xAF2 JUMPI PUSH2 0xAF1 PUSH2 0xE51 JUMP JUMPDEST JUMPDEST PUSH1 0x0 PUSH2 0xB00 DUP8 DUP3 DUP9 ADD PUSH2 0xA41 JUMP JUMPDEST SWAP5 POP POP PUSH1 0x20 PUSH2 0xB11 DUP8 DUP3 DUP9 ADD PUSH2 0xA41 JUMP JUMPDEST SWAP4 POP POP PUSH1 0x40 PUSH2 0xB22 DUP8 DUP3 DUP9 ADD PUSH2 0xA41 JUMP JUMPDEST SWAP3 POP POP PUSH1 0x60 PUSH2 0xB33 DUP8 DUP3 DUP9 ADD PUSH2 0xA56 JUMP JUMPDEST SWAP2 POP POP SWAP3 SWAP6 SWAP2 SWAP5 POP SWAP3 POP JUMP JUMPDEST PUSH1 0x0 DUP1 PUSH1 0x40 DUP4 DUP6 SUB SLT ISZERO PUSH2 0xB56 JUMPI PUSH2 0xB55 PUSH2 0xE51 JUMP JUMPDEST JUMPDEST PUSH1 0x0 PUSH2 0xB64 DUP6 DUP3 DUP7 ADD PUSH2 0xA41 JUMP JUMPDEST SWAP3 POP POP PUSH1 0x20 PUSH2 0xB75 DUP6 DUP3 DUP7 ADD PUSH2 0xA56 JUMP JUMPDEST SWAP2 POP POP SWAP3 POP SWAP3 SWAP1 POP JUMP JUMPDEST PUSH2 0xB88 DUP2 PUSH2 0xDBD JUMP JUMPDEST DUP3 MSTORE POP POP JUMP JUMPDEST PUSH1 0x0 PUSH2 0xB9B PUSH1 0x14 DUP4 PUSH2 0xCDF JUMP JUMPDEST SWAP2 POP PUSH2 0xBA6 DUP3 PUSH2 0xE56 JUMP JUMPDEST PUSH1 0x20 DUP3 ADD SWAP1 POP SWAP2 SWAP1 POP JUMP JUMPDEST PUSH1 0x0 PUSH2 0xBBE PUSH1 0x35 DUP4 PUSH2 0xCDF JUMP JUMPDEST SWAP2 POP PUSH2 0xBC9 DUP3 PUSH2 0xE7F JUMP JUMPDEST PUSH1 0x40 DUP3 ADD SWAP1 POP SWAP2 SWAP1 POP JUMP JUMPDEST PUSH1 0x0 PUSH2 0xBE1 PUSH1 0x0 DUP4 PUSH2 0xCDF JUMP JUMPDEST SWAP2 POP PUSH2 0xBEC DUP3 PUSH2 0xECE JUMP JUMPDEST PUSH1 0x0 DUP3 ADD SWAP1 POP SWAP2 SWAP1 POP JUMP JUMPDEST PUSH1 0x0 PUSH2 0xC04 PUSH1 0x1D DUP4 PUSH2 0xCDF JUMP JUMPDEST SWAP2 POP PUSH2 0xC0F DUP3 PUSH2 0xED1 JUMP JUMPDEST PUSH1 0x20 DUP3 ADD SWAP1 POP SWAP2 SWAP1 POP JUMP JUMPDEST PUSH2 0xC23 DUP2 PUSH2 0xDE9 JUMP JUMPDEST DUP3 MSTORE POP POP JUMP JUMPDEST PUSH1 0x0 PUSH1 0x20 DUP3 ADD SWAP1 POP PUSH2 0xC3E PUSH1 0x0 DUP4 ADD DUP5 PUSH2 0xB7F JUMP JUMPDEST SWAP3 SWAP2 POP POP JUMP JUMPDEST PUSH1 0x0 PUSH1 0x20 DUP3 ADD SWAP1 POP DUP2 DUP2 SUB PUSH1 0x0 DUP4 ADD MSTORE PUSH2 0xC5D DUP2 PUSH2 0xB8E JUMP JUMPDEST SWAP1 POP SWAP2 SWAP1 POP JUMP JUMPDEST PUSH1 0x0 PUSH1 0x20 DUP3 ADD SWAP1 POP DUP2 DUP2 SUB PUSH1 0x0 DUP4 ADD MSTORE PUSH2 0xC7D DUP2 PUSH2 0xBB1 JUMP JUMPDEST SWAP1 POP SWAP2 SWAP1 POP JUMP JUMPDEST PUSH1 0x0 PUSH1 0x20 DUP3 ADD SWAP1 POP DUP2 DUP2 SUB PUSH1 0x0 DUP4 ADD MSTORE PUSH2 0xC9D DUP2 PUSH2 0xBD4 JUMP JUMPDEST SWAP1 POP SWAP2 SWAP1 POP JUMP JUMPDEST PUSH1 0x0 PUSH1 0x20 DUP3 ADD SWAP1 POP DUP2 DUP2 SUB PUSH1 0x0 DUP4 ADD MSTORE PUSH2 0xCBD DUP2 PUSH2 0xBF7 JUMP JUMPDEST SWAP1 POP SWAP2 SWAP1 POP JUMP JUMPDEST PUSH1 0x0 PUSH1 0x20 DUP3 ADD SWAP1 POP PUSH2 0xCD9 PUSH1 0x0 DUP4 ADD DUP5 PUSH2 0xC1A JUMP JUMPDEST SWAP3 SWAP2 POP POP JUMP JUMPDEST PUSH1 0x0 DUP3 DUP3 MSTORE PUSH1 0x20 DUP3 ADD SWAP1 POP SWAP3 SWAP2 POP POP JUMP JUMPDEST PUSH1 0x0 PUSH2 0xCFB DUP3 PUSH2 0xDE9 JUMP JUMPDEST SWAP2 POP PUSH2 0xD06 DUP4 PUSH2 0xDE9 JUMP JUMPDEST SWAP3 POP DUP3 PUSH32 0xFFFFFFFFFFFFFFFFFFFFFFFFFFFFFFFFFFFFFFFFFFFFFFFFFFFFFFFFFFFFFFFF SUB DUP3 GT ISZERO PUSH2 0xD3B JUMPI PUSH2 0xD3A PUSH2 0xDF3 JUMP JUMPDEST JUMPDEST DUP3 DUP3 ADD SWAP1 POP SWAP3 SWAP2 POP POP JUMP JUMPDEST PUSH1 0x0 PUSH2 0xD51 DUP3 PUSH2 0xDE9 JUMP JUMPDEST SWAP2 POP PUSH2 0xD5C DUP4 PUSH2 0xDE9 JUMP JUMPDEST SWAP3 POP DUP3 PUSH2 0xD6C JUMPI PUSH2 0xD6B PUSH2 0xE22 JUMP JUMPDEST JUMPDEST DUP3 DUP3 DIV SWAP1 POP SWAP3 SWAP2 POP POP JUMP JUMPDEST PUSH1 0x0 PUSH2 0xD82 DUP3 PUSH2 0xDE9 JUMP JUMPDEST SWAP2 POP PUSH2 0xD8D DUP4 PUSH2 0xDE9 JUMP JUMPDEST SWAP3 POP DUP3 DUP3 LT ISZERO PUSH2 0xDA0 JUMPI PUSH2 0xD9F PUSH2 0xDF3 JUMP JUMPDEST JUMPDEST DUP3 DUP3 SUB SWAP1 POP SWAP3 SWAP2 POP POP JUMP JUMPDEST PUSH1 0x0 PUSH2 0xDB6 DUP3 PUSH2 0xDC9 JUMP JUMPDEST SWAP1 POP SWAP2 SWAP1 POP JUMP JUMPDEST PUSH1 0x0 DUP2 ISZERO ISZERO SWAP1 POP SWAP2 SWAP1 POP JUMP JUMPDEST PUSH1 0x0 PUSH20 0xFFFFFFFFFFFFFFFFFFFFFFFFFFFFFFFFFFFFFFFF DUP3 AND SWAP1 POP SWAP2 SWAP1 POP JUMP JUMPDEST PUSH1 0x0 DUP2 SWAP1 POP SWAP2 SWAP1 POP JUMP JUMPDEST PUSH32 0x4E487B7100000000000000000000000000000000000000000000000000000000 PUSH1 0x0 MSTORE PUSH1 0x11 PUSH1 0x4 MSTORE PUSH1 0x24 PUSH1 0x0 REVERT JUMPDEST PUSH32 0x4E487B7100000000000000000000000000000000000000000000000000000000 PUSH1 0x0 MSTORE PUSH1 0x12 PUSH1 0x4 MSTORE PUSH1 0x24 PUSH1 0x0 REVERT JUMPDEST PUSH1 0x0 DUP1 REVERT JUMPDEST PUSH32 0x496E73756666696369656E742062616C616E6365000000000000000000000000 PUSH1 0x0 DUP3 ADD MSTORE POP JUMP JUMPDEST PUSH32 0x44656C6567617465206163636F756E7420646F65736E27742068617665206163 PUSH1 0x0 DUP3 ADD MSTORE PUSH32 0x6365737320746F20656E6F75676820746F6B656E730000000000000000000000 PUSH1 0x20 DUP3 ADD MSTORE POP JUMP JUMPDEST POP JUMP JUMPDEST PUSH32 0x596F75206D757374206174206C6561737420627579203120746F6B656E000000 PUSH1 0x0 DUP3 ADD MSTORE POP JUMP JUMPDEST PUSH2 0xF03 DUP2 PUSH2 0xDAB JUMP JUMPDEST DUP2 EQ PUSH2 0xF0E JUMPI PUSH1 0x0 DUP1 REVERT JUMPDEST POP JUMP JUMPDEST PUSH2 0xF1A DUP2 PUSH2 0xDE9 JUMP JUMPDEST DUP2 EQ PUSH2 0xF25 JUMPI PUSH1 0x0 DUP1 REVERT JUMPDEST POP JUMP INVALID LOG2 PUSH5 0x6970667358 0x22 SLT KECCAK256 LT EXTCODESIZE RETURNDATASIZE CALLDATASIZE MLOAD 0xCD DUP7 LOG1 CALLER ADDMOD SWAP2 0xE3 SWAP5 0xBE SGT PUSH17 0x5CC9DE9C6129D5CC54D84F20110A445A64 PUSH20 0x6F6C634300080700330000000000000000000000 "
				},
				"gasEstimates": {
					"creation": {
						"codeDepositCost": "786800",
						"executionCost": "47227",
						"totalCost": "834027"
					},
					"external": {
						"approve(address,uint256)": "infinite",
						"balance(address)": "2907",
						"buyToken(address)": "infinite",
						"getTotalSupply()": "2481",
						"getapprovedamount(address,address)": "infinite",
						"transfer(address,uint256)": "infinite",
						"transferfrom(address,address,address,uint256)": "infinite"
					}
				},
				"methodIdentifiers": {
					"approve(address,uint256)": "095ea7b3",
					"balance(address)": "e3d670d7",
					"buyToken(address)": "7e72fb52",
					"getTotalSupply()": "c4e41b22",
					"getapprovedamount(address,address)": "626bc4c5",
					"transfer(address,uint256)": "a9059cbb",
					"transferfrom(address,address,address,uint256)": "a5f611f2"
				}
			},
			"userdoc": {
				"kind": "user",
				"methods": {},
				"version": 1
			}
		}
	}
}